:020000040800F2
:10000000C8360020D52700081D0300081F0300087C
:1000100023030008270300082B030008000000004A
:100020000000000000000000000000002F03000896
:100030003103000800000000330300083503000806
:10004000EF270008EF270008EF270008EF27000838
:10005000EF270008EF270008EF270008EF27000828
:10006000EF270008EF270008EF270008EF27000818
:10007000EF270008EF270008EF270008EF27000808
:10008000EF270008EF270008EF270008EF270008F8
:10009000EF270008EF270008EF270008EF270008E8
:1000A000EF270008EF270008EF270008EF270008D8
:1000B000EF270008CD080008EF270008EF27000809
:1000C000EF270008EF270008EF270008EF270008B8
:1000D000EF270008AF0B0008D50D0008B905000890
:1000E000EF270008EF270008EF270008EF27000898
:1000F000EF270008EF270008EF270008EF27000888
:10010000EF270008EF270008EF270008EF27000877
:10011000EF270008EF270008EF270008EF27000867
:10012000EF270008EF270008EF270008EF27000857
:1001300000F002F800F043F80AA090E8000C8244B6
:100140008344AAF10107DA4501D100F038F8AFF293
:10015000090EBAE80F0013F0010F18BFFB1A43F0A5
:1001600001031847DC300000FC300000103A24BFC7
:1001700078C878C1FAD8520724BF30C830C144BF0C
:1001800004680C607047000000230024002500264E
:10019000103A28BF78C1FBD8520728BF30C148BFEA
:1001A0000B6070471FB502F0D9FF0400002000214A
:1001B00003F02CF8401C60601FBD10B510BD02F0AC
:1001C000A8FF1146FFF7EEFF00F04DF802F0D8FF50
:1001D00003B4FFF7F2FF03BC00F08EFC2DE9F04101
:1001E00007460E46144607FB06F0451C2078B8B1BA
:1001F000002020700421384800F04AFC05E04FF44C
:100200007A7000F068FFA5F57A75B5F57A7FF6D8B3
:10021000A8B200F060FF04212F48083000F038FC3D
:10022000BDE8F08170B504460D462878D0B120783D
:1002300072280CD160783D2809D1A01C02F0C1FEC3
:1002400000B22649088026A000F04AFD08E02046BA
:1002500002F0B7FE00B22749088001202649087045
:100260000020287070BD0EB5244903C9CDE90101F5
:1002700000F0D1F800F0F2FE4FF4E13000F04BFC5A
:100280004FF4E13000F037FD4FF4E13000F044F975
:1002900000F0FEF9472141F2873000F09AFA41F66A
:1002A0001F4140F2F31000F067FA042101A800F0AA
:1002B000EFFB10E01249134800F083FE1249134887
:1002C00000F093FE12480088124B134A0E4900902A
:1002D0000E4800F02EFEEDE7180001080200002095
:1002E0005365742072617465206973204F4B210D32
:1002F0000A0000000000002004000020383200083E
:1003000042000020641000204600002064200020ED
:10031000200000201E00002064000020704700BF65
:10032000FEE700BFFEE700BFFEE700BFFEE7704745
:1003300070477047704700000CB500200190009096
:100340006C48006840F480306A49086000BF694822
:10035000006800F4003000900198401C0190009863
:1003600018B90198B0F5A06FF1D16248006800F4A7
:10037000003010B10120009001E0002000900098B2
:10038000012843D15C48006840F010005A490860D9
:100390000846006820F0030008600846006840F046
:1003A0000200086053484068524948600846406867
:1003B00048600846406840F48060486008464068ED
:1003C00020F47C1048600846406840F4E81048601B
:1003D0000846006840F08070086000BF454800682B
:1003E00000F000700028F9D04248406820F0030077
:1003F000404948600846406840F00200486000BF3D
:100400003C48406800F00C000828F9D10CBD10B53C
:10041000FFF792FF10BD10B53648006840F00100AC
:10042000344908600846406834490840314948600A
:1004300008460068324908402E49086008460068AE
:1004400020F4802008600846406820F4FE004860E0
:100450004FF41F008860FFF7DAFF4FF00060294972
:10046000086010BD10B5002100200022214B5B6800
:1004700003F00C0121B1042906D0082928D107E096
:10048000214B224C236027E01F4B204C236023E0AC
:10049000184B5B6803F47010164B5B6803F48032F2
:1004A000022303EB904022B9194B4343174C2360BE
:1004B0000DE0104B5B6803F4003323B1144B43434E
:1004C000124C236003E0104B4343104C236003E0C5
:1004D0000D4B0E4C236000BF00BF064B5B68C3F39F
:1004E00003130C4CE15C094B1B68CB40074C2360A9
:1004F00010BD000000100240002002400000FFF884
:10050000FFFFF6FE08ED00E000127A000800002070
:1005100000093D000C00002010B586B00446012102
:10052000082002F0E5FA0121880402F0EEFA4FF407
:100530008060ADF8140003208DF8160018208DF8A7
:10054000170005A94C4801F0F7FF4FF40060ADF823
:10055000140004208DF8170005A9474801F0ECFFAE
:1005600027208DF8000003208DF8010002208DF86F
:10057000020001208DF80300684601F014FF019489
:100580000020ADF80800ADF80A00ADF80C00ADF899
:1005900010000C20ADF80E0001A9384802F04FFB06
:1005A000012240F22551354802F0E1FB0121334898
:1005B00002F0D1FB06B010BD10B540F225512F4816
:1005C00002F0BAFC00283CD02C4802F035FCC4B242
:1005D0000A2C26D12A480088012819DD28480088DD
:1005E000401E2849085C0D2812D125480188008842
:1005F000401C234A10802348445410460088224956
:10060000088000201146088001202049087010E071
:100610001B4801880088401C194A1080194844541E
:1006200007E0174801880088401C154A10801548CB
:10063000445413480088B0F5805F02DB0020104965
:10064000088010BD10B5044621460C4802F0F0FBAE
:1006500000BF4021094802F059FC0028F9D010BD24
:1006600010B5044603E02078FFF7ECFF641C207807
:100670000028F8D110BD0000000C014000480040E7
:100680001C00002064000020200000201E0000202C
:1006900000B587B001214FF4017002F029FA4FF440
:1006A000404002F089F90220ADF8040000208DF8E6
:1006B000070001A92E4801F03FFF2E4800F038FD49
:1006C000002002908DF80C008DF80D004FF4602092
:1006D00004900020059001208DF8180002A92548FB
:1006E00000F04DFD0121234800F075FD214800F088
:1006F00094FD00BF1F4800F095FD0028FAD11D4869
:1007000000F09AFD00BF1B4800F09BFD0028FAD1C5
:1007100007B000BD10B50446072301222146154845
:1007200000F0C5FD0121134800F095FD00BF022136
:10073000104800F001FF0028F9D00E4800F01EFE1E
:1007400010BD2DE9F04107460C460025002608E0C3
:100750003846FFF7DFFF0544052000F0BCFC701CA5
:10076000C6B2A642F4DBB5FBF4F080B2BDE8F0817E
:1007700000080140002401407FB505460C460121D8
:10078000022002F0C2F9ADF80850ADF80440002094
:10079000ADF80A00ADF8060001A99A4800F0C4FFC0
:1007A00001221146974801F036FB1D208DF800000C
:1007B00000208DF8010003208DF8020001208DF843
:1007C0000300684601F0EFFD01218E4801F008FBAF
:1007D0007FBD30B589B005460C460121042002F0EA
:1007E00094F90121092002F083F94020ADF820009E
:1007F00018208DF8230003208DF8220008A98248D4
:1008000001F09AFE8020ADF8200018208DF823001A
:1008100003208DF8220008A97B4801F08DFE4FF4DB
:100820008070ADF8200018208DF8230003208DF88B
:10083000220008A9744801F07FFEADF81850ADF809
:1008400014400020ADF81A00ADF8160005A96F4855
:1008500000F06AFF7020ADF804000120ADF806003A
:100860000220ADF80C0001A9684800F09AFF702042
:10087000ADF804000120ADF806000220ADF80C0030
:1008800001A9624800F0CFFF7020ADF804000120FC
:10089000ADF806000220ADF80C0001A95B4801F09C
:1008A0000FF80821594801F0CBFB0821574801F007
:1008B000D0FB0821554801F0D9FB8020534908801E
:1008C0000121524801F08CFA09B030BD08B5012170
:1008D0004C4801F04EFD00287ED00121494801F02E
:1008E00059FD00204A4908606EE04A4848490968B5
:1008F00030F9110000282DDD47484549096830F9D5
:1009000011004449424A126831F91210401A434911
:100910003F4A126831F91210884211DD3F483C49C4
:10092000096830F811103B48394A126830F8120053
:10093000084400B23949364A126821F8120009E029
:1009400035483349096830F811003449304A126893
:1009500021F812002F482E49096830F911000028AB
:100960002DDA2D482A49096830F911102948284AFA
:10097000126830F91200091A2848254A126830F91D
:100980001200814211DA25482149096830F8110026
:1009900020491F4A126831F81210084401B21F485A
:1009A0001B4A126820F8121009E01B481849096810
:1009B00030F811101948164A126820F8121014481D
:1009C0000068401C124908601148006803288CDB4D
:1009D00000F032F8124900E013E0124800F005FB85
:1009E00011480088114B124A0D4900900D4800F043
:1009F000A0FA1048006808B9012000E000200D4965
:100A0000086008BD00040040000C014000080040E0
:100A100024000020340000202E00002028000020A8
:100A20004600002064200020200000201E0000203E
:100A300064000020940123422B4800882B49088041
:100A400029484088091D088027488088091D08809A
:100A5000704710B50246002017E032F91030002B25
:100A600011DD32F81030224C24F81030234633F9CF
:100A700010301D4C34F910401B1B93FBF1F31BB2DB
:100A80001C4C24F81030431CD8B20328E5DB10BD01
:100A90002DE9FC4105460F460024002600BF1EE05C
:100AA000002606E0A01935F810002DF81600701C7D
:100AB000C6B2032EF6DBE01C35F91000322190FBA4
:100AC000F1F00FFA80F841466846FFF7C2FFE11CDB
:100AD00035F8111088B200F0FEFA201D04B2BC42B5
:100AE000DEDBBDE8FC810000280000203408004067
:100AF0002E00002034000020014600BF704700BFD8
:100B0000BC4A128802F04002002AF9D0C2B2B94BA6
:100B10001B1D1A80704710B586B00446012144F2AF
:100B2000040001F0E5FF4FF40070ADF8140003205D
:100B30008DF8160018208DF8170005A9AE4801F0B1
:100B4000FBFC4FF48060ADF8140004208DF8170012
:100B500005A9A94801F0F0FC25208DF8000003202C
:100B60008DF801008DF8020001208DF80300684621
:100B700001F019FC01940020ADF80800ADF80A005E
:100B8000ADF80C00ADF810000C20ADF80E0001A976
:100B9000984802F054F8012240F22551954802F09D
:100BA000E6F80121934802F0D6F806B010BD10B562
:100BB00040F225518F4802F0BFF900284FD08D48F0
:100BC00002F03AF9C4B28D48008848B9442C07D1E4
:100BD0008B48008820B98B4804708B48047009E06A
:100BE0008748008830B98548008818B9854804705E
:100BF0008648047083480078442831D10A2C1ED1DD
:100C00007E480088012811DD7C480088401E7E490E
:100C1000085C0D280AD10846784909884454002008
:100C20007649088001207A49087010E073480188ED
:100C30000088401C714A10807348445407E06F4894
:100C400001880088401C6D4A10806F4844546B48EE
:100C50000088B0F5805F34DB00206849088030E010
:100C60000A2C1ED166480088012811DD64480088DE
:100C7000401E6649085C0D280AD10846604909886B
:100C8000445400205E49088001206249087010E049
:100C90005B4801880088401C594A10805B484454D6
:100CA00007E0574801880088401C554A1080574883
:100CB000445453480088B0F5805F02DB002050495F
:100CC000088010BD10B5044621464A4802F0B0F82D
:100CD00000BF4021474802F019F90028F9D010BDA3
:100CE00010B5044603E02078FFF7ECFF641C207881
:100CF0000028F8D110BD10B586B0044601210420AB
:100D000001F0F6FE0121480401F0FFFE0420ADF8D9
:100D1000140003208DF816001C208DF8170005A97B
:100D2000354801F009FC26208DF8000003208DF8DD
:100D300001008DF8020001208DF80300684601F0E3
:100D400032FB01940020ADF80800ADF80A00ADF8C0
:100D50000C00ADF810000C20ADF80E0001A92E48D3
:100D600001F06DFF2C481030008800202A49103116
:100D700008800846008800200880081D00880020A0
:100D8000091D088008460088002008800846008861
:100D900040F00800088001211F4801F0DCFF06B088
:100DA00010BD10B5044621461B4802F041F800BFB3
:100DB0004021194802F0AAF80028F9D010BD10B55A
:100DC000044603E02078FFF7ECFF641C207800283D
:100DD000F8D110BD10B540F225510F4802F0ACF823
:100DE00030B10D4802F028F8C4B22046FFF7D9FF11
:100DF00010BD000000380140000801404000002004
:100E000044000020470000206410002064200020DF
:100E10004200002046000020004400402DE9FC5F15
:100E200005460F4601244FF0000A01E0601C04B2A1
:100E3000285D2028FAD00AE02046611C0CB2285C0C
:100E40000AEB8A0100EB410030380FFA80FA285D86
:100E50003A2802DA285D2F28EEDC002038705CE0AA
:100E60004FF000080026B14606E000202DF81900DA
:100E700009F1010000F0FF09B9F1030FF5DB25E0EE
:100E800000BF2046611C0CB2285C2028F9D10DE07F
:100E90002046611C0CB2285C3DF8161001EB810164
:100EA00000EB4100303800B22DF81600285D3A28DA
:100EB00002DA285D2F28EBDC601E285C3A2805DA70
:100EC000601E285C2F2801DD701CC6B2032ED7DB04
:100ED00001E0601C04B2285D2028FAD00AE0204618
:100EE000611C0CB2285C08EB880100EB4100303833
:100EF0000FFA80F8285D3A2802DA285D2F28EEDC08
:100F0000322098FBF0F00FFA80FB59466846FFF755
:100F1000A0FD1FFA88F000F0DEF85FEA0A00AAF1EF
:100F200001010FFA81FA02D03878002898D0BDE884
:100F3000FC9F2DE9F04705460E4691469846DDF8A0
:100F400020A0307858B32878552828D1A87854287C
:100F500025D1687832280ED1EC1C03E02078FFF709
:100F600020FF641C20780D28F8D160780A28F5D17C
:100F70000020307013E06878332810D1EC1C03E0B7
:100F80002078FFF75FFB641C20780D28F8D160788B
:100F90000A28F5D1002030702CA0FFF761FB98F8EB
:100FA000000060B1002705E019F80700FFF78AFE8E
:100FB000781C87B25745F7DB002088F80000BDE8B1
:100FC000F08770B505460C46207860B12878442833
:100FD00007D121462846FFF721FF0020207001207D
:100FE00070BD0020FCE70020FAE770B504460D460E
:100FF000287848B32078412824D16078442821D12A
:10100000A07843281ED1E0783F281BD10120FFF7AC
:1010100081FB0F4908800FA0FFF762FE0C49098889
:101020000812FFF74FFE0A490E88F11706EB11610F
:101030000912A6EB0121C8B2FFF744FE0020287078
:10104000012070BD0020FCE70020FAE70D0A000037
:10105000480000204144433D0000000010B56FF0FF
:10106000040001F0EAF92E4800682E49B0FBF1F0C7
:101070002D4908700846007800EB4001C1EBC01014
:101080004FF6FF7101EAC0002849088010BD0146F3
:10109000254A12784A434FF0E0235A6100229A61B0
:1010A0001A46126942F001021A6100BF4FF0E022B5
:1010B000106900F001021AB100F48032002AF5D064
:1010C0004FF0E022126922F001024FF0E0231A6192
:1010D00000229A6170470146144A12884A434FF031
:1010E000E0235A6100229A611A46126942F0010215
:1010F0001A6100BF4FF0E022106900F001021AB13E
:1011000000F48032002AF5D04FF0E022126922F07C
:1011100001024FF0E0231A6100229A61704700003B
:101120000800002000127A004A0000204C00002035
:1011300010B50446FA48844208D10121401501F057
:10114000F1FC0021601501F0EDFC17E0F548844248
:1011500008D10121001501F0E5FC0021201501F066
:10116000E1FC0BE0F048844208D10121C80301F002
:10117000D9FC00214FF4004001F0D4FC10BD30B583
:101180000246002000235068E84C20400D790C688E
:1011900044EA0524204350609068E54C2040D1E9A2
:1011A00002542C434D7944EA450420439060D06AB0
:1011B00020F470000C7C641EE4B2234340EA035028
:1011C000D06230BD00210160017141718160C16058
:1011D00001210174704721B1826842F001028260EE
:1011E00003E0826822F001028260704721B18268C8
:1011F00042F48072826003E0826822F4807282602E
:10120000704710B50023CBB21AB144681C43446048
:1012100002E044689C43446010BD816841F00801CD
:1012200081607047014600208A6802F008020AB116
:10123000012000E000207047816841F004018160D6
:101240007047014600208A6802F004020AB10120BA
:1012500000E00020704721B1826842F4A002826061
:1012600003E0826822F4A0028260704701460020F9
:101270008A6802F480020AB1012000E00020704771
:1012800010B50A4600210023416821F46041531E35
:1012900041EA4331416010BD21B1426842F400622D
:1012A000426003E0426822F4006242607047F0B599
:1012B00004460D4600200021092D11DDE068A5F14E
:1012C0000A0606EB4607072606FA07F18843A5F14A
:1012D0000A0606EB460603FA06F10843E0600CE056
:1012E000206905EB4507072606FA07F1884305EB59
:1012F000450603FA06F108432061072A0FDA606BFE
:10130000561E06EB86071F2606FA07F18843561E6F
:1013100006EB860605FA06F10843606322E00D2A13
:101320000FDA206BD61F06EB86071F2606FA07F199
:101330008843D61F06EB860605FA06F108432063AC
:1013400010E0E06AA2F10D0606EB86071F2606FAFA
:1013500007F18843A2F10D0606EB860605FA06F1B1
:101360000843E062F0BD21B1826842F480128260DD
:1013700003E0826822F48012826070470146C86CE4
:1013800080B2704766484C300068704721B14268AF
:1013900042F48062426003E0426822F4806242606C
:1013A000704721B1426842F48052426003E04268D3
:1013B00022F48052426070470A460021816821F47D
:1013C000E04111438160704721B1826842F40042DC
:1013D000826003E0826822F400428260704721B19B
:1013E000826842F40212826003E0826822F40212F0
:1013F00082607047014600208A6802F400120AB138
:10140000012000E000207047F0B50446154600209A
:1014100000220026092911DDE068A1F10A0707EB87
:10142000470C072707FA0CF29043A1F10A0707EBD4
:10143000470703FA07F21043E0600CE0206901EB74
:10144000410C072707FA0CF2904301EB410703FA1E
:1014500007F210432061A06BC0F30156EF1C06F1A8
:10146000010CA7EB0C0707EB870C1F2707FA0CF200
:101470009043EF1C06F1010CA7EB0C0707EB870765
:1014800001FA07F21043A063F0BD10B50A4600212F
:101490000023816B21F44011531E41EA0351816303
:1014A00010BD08B5002300930090009B0B440093EF
:1014B000009B1A6008BD08B502460020009000920B
:1014C00001F12800009B184400900098006880B249
:1014D00008BD0A4600214168164B1940114341607E
:1014E00070474162826270470A460021416821F0DC
:1014F0001F0111434160704740B109490831096833
:1015000041F40001064A0832116007E0044908313D
:10151000096821F40001024A083211607047000096
:101520000024014000280140003C0140FFFEF0FF84
:10153000FDF7F1FFFFFD3FFF0246002013680B405F
:101540000BB1012000E000207047CA4302607047E1
:1015500070B502460020002300240B125568CEB25D
:1015600005EA060415681D4015B10CB1012000E024
:10157000002070BD00220A12D343036070470000B0
:1015800010B50446FE48844208D10121C01401F080
:10159000C9FA0021E01401F0C5FAC4E0B4F1804FAB
:1015A00008D10121084601F0CAFA0021012001F00A
:1015B000C6FAB8E0F348844208D10121022001F0C4
:1015C000BEFA0021022001F0BAFAACE0EE488442F3
:1015D00008D10121042001F0B2FA0021042001F019
:1015E000AEFAA0E0E948844208D10121082001F0C8
:1015F000A6FA0021082001F0A2FA94E0E44884420F
:1016000008D10121102001F09AFA0021102001F0E8
:1016100096FA88E0DF48844208D10121202001F0B9
:101620008EFA0021202001F08AFA7CE0DA48844218
:1016300008D10121401401F075FA0021601401F075
:1016400071FA70E0D548844209D10121C80401F043
:1016500069FA00214FF4002001F064FA63E0D048F9
:10166000844209D10121080501F05CFA00214FF400
:10167000801001F057FA56E0CA48844209D101218E
:10168000480501F04FFA00214FF4001001F04AFA2A
:1016900049E0C548844208D10121402001F04FFAB9
:1016A0000021402001F04BFA3DE0C048844208D1BF
:1016B0000121802001F043FA0021802001F03FFA4F
:1016C00031E0BB48844208D10121801501F037FA8E
:1016D0000021A01501F033FA25E0B648844209D173
:1016E0000121080401F01EFA00214FF4803001F0BE
:1016F00019FA18E0B048844209D10121480401F0E8
:1017000011FA00214FF4003001F00CFA0BE0AB4865
:10171000844208D10121880401F004FA00214FF429
:10172000802001F0FFF910BD00220288944B9842FE
:101730000ED0994B98420BD0B0F1804F08D0914B0E
:10174000984205D0904B984202D0904B984204D1D9
:101750004FF68F731A404B881A438D4B984207D02F
:101760008C4B984204D04FF6FF431A40CB881A4363
:1017700002808B8883850B880385814B98420BD030
:10178000854B984208D08B4B984205D08A4B9842A3
:1017900002D08A4B984201D10B7A038601238382BF
:1017A000704770B5002400220023058C4FF6FE76AA
:1017B00035400584028C8388048B4FF68F752C404E
:1017C000B51E2C400D882C43751E2A400D892A43D6
:1017D0004D882A436A4DA8420BD06F4DA84208D0CD
:1017E000744DA84205D0744DA84202D0734DA84252
:1017F00013D14FF6F7752A404D892A434FF6FB75F2
:101800002A408D882A434FF6FF652B404FF6FF553F
:101810002B408D892B43CD892B4383800483CD8836
:101820008586028470BD70B5002400220023058CDB
:101830004FF6EF7635400584028C8388048B48F69A
:10184000FF752C404FF6FF452C400D884FF6FF7674
:1018500006EA05252C434FF6DF752A400D8906EA76
:1018600005152A434D8806EA05152A43444DA8422A
:1018700002D0494DA8421DD14FF67F752A404D89AF
:101880004FF6FF7606EA05152A434FF6BF752A4044
:101890008D8806EA05152A434FF6FF352B404FF297
:1018A000FF752B408D8906EA85052B43CD8906EA15
:1018B00085052B4383800483CD880587028470BD12
:1018C00070B5002400220023058C4FF6FF663540DA
:1018D0000584028C8388848B4FF68F752C404FF6DD
:1018E000FC752C400D882C434FF6FF552A400D897E
:1018F0004FF6FF7606EA05252A434D8806EA0525B8
:101900002A431F4DA84202D0234DA8421DD14FF2B9
:10191000FF752A404D894FF6FF7606EA05252A43D2
:101920004FF6FF352A408D8806EA05252A434EF6F4
:10193000FF752B404DF6FF752B408D8906EA051586
:101940002B43CD8906EA05152B4383808483CD88FC
:101950008587028470BD70B5002200230024058CA9
:101960004EF6FF7635400584038C8488828B48F6DA
:10197000FF752A404FF6FF452A400D8820E0000001
:10198000002C01400004004000080040000C004012
:10199000001000400014004000340140004C0140A1
:1019A000005001400054014000180040001C00405D
:1019B0000020004000400140004401400048014038
:1019C0004FF6FF7606EA05252A434DF6FF752B40B4
:1019D0000D8906EA05352B434D8806EA05352B436C
:1019E000FA4DA84202D0FA4DA84208D14BF6FF7535
:1019F0002C408D894FF6FF7606EA85152C438480AE
:101A00008283CD88A0F84050038470BD828B4FF252
:101A1000FF331A408283828B4FF6FF7303EA012360
:101A20001A4382837047F0B50C4615460022002108
:101A30000026078C4EF6FF7C07EA0C070784828B92
:101A4000018C4FF6FF7707EA043640F6FF473A402D
:101A50004FF6FF7707EA05273A434FF6FF7707EA85
:101A600003373A43D94FB8420ED0D94FB8420BD0C2
:101A7000B0F1804F08D0D74FB84205D0D64FB8420A
:101A800002D0D64FB84206D14DF6FF77394046F422
:101A90008057394305E047F6FF57394044F48057F3
:101AA000394382830184F0BD828B4FF6F3731A4071
:101AB0008283828B0A4382837047F0B50C461546B9
:101AC000002200210026078C4FF6FF6C07EA0C0766
:101AD0000784828B018C4FF6FF7707EA04264FF6C6
:101AE0000C773A404FF6FF7707EA03172F433A4344
:101AF000B64FB8420ED0B64FB8420BD0B0F1804FBF
:101B000008D0B44FB84205D0B34FB84202D0B34F5B
:101B1000B84206D14FF6FF57394046F48077394333
:101B200005E04FF2FF57394044F480773943828310
:101B30000184F0BD028B4FF2FF331A400283028B07
:101B40004FF6FF7303EA01231A4302837047F0B58F
:101B50000C461546002200210026078C4FF6EF7C2C
:101B600007EA0C070784028B018C4FF6FF7707EA20
:101B7000041640F6FF473A404FF6FF7707EA03376F
:101B80003A434FF6FF7707EA05273A438F4FB842AB
:101B90000ED08F4FB8420BD0B0F1804F08D08D4F90
:101BA000B84205D08C4FB84202D08C4FB84206D113
:101BB0004FF6DF77394046F01007394305E04FF61E
:101BC0005F77394044F01007394302830184F0BD48
:101BD000028B4FF6F3731A400283028B0A4302838F
:101BE0007047F0B50C46154600220021068C4FF6D2
:101BF000FE773E400684028B018C4FF60C76324015
:101C00007E1C06EA03162E433243704EB0420ED0BD
:101C10006F4EB0420BD0B0F1804F08D06D4EB04245
:101C200005D06D4EB04202D06C4EB04206D14FF698
:101C3000FD76314044F00106314305E04FF6F5767C
:101C4000314044F00106314302830184F0BD70B598
:101C500005460C465D4885420ED05D4885420BD056
:101C6000B5F1804F08D05B48854205D05A4885427F
:101C700002D05A48854200D100E000BF208850B908
:101C80002389A28861882846FFF7ABFFE1882846B0
:101C9000FFF79EFF25E0208804280AD12389A28827
:101CA00061882846FFF753FFE1882846FFF742FF87
:101CB00017E0208808280AD12389A288618828464D
:101CC000FFF7FBFEE1882846FFF7EEFE09E02389D7
:101CD000A28861882846FFF7A6FEE1882846FFF71C
:101CE00095FE70BD2DE9F04105460C460026012702
:101CF000608808B9022600E00026A088012801D1EA
:101D0000022700E001272088A0B92389A2886188E2
:101D10002846FFF766FFE1882846FFF759FF238929
:101D20003A4631462846FFF712FFE1882846FFF77A
:101D300001FF13E02389A28861882846FFF707FF87
:101D4000E1882846FFF7F6FE23893A4631462846C1
:101D5000FFF747FFE1882846FFF73AFFBDE8F0812B
:101D60000A884B881A438B881A43CB881A430B89FD
:101D70001A434B891A438B891A43A0F844207047B1
:101D80004FF6FF71818000210180C1804180017286
:101D900070470021018041808180C18001814181A3
:101DA0008181C181704700210180418001218180B2
:101DB0000021C18001817047002101804180818024
:101DC000C18001814181818170470000002C014068
:101DD000003401400004004000080040000C0040B6
:101DE00021B1028842F00102028004E002884FF62D
:101DF000FE731A400280704731B1B0F8442042F4BB
:101E00000042A0F8442005E0B0F84420C2F30E02DE
:101E1000A0F8442070471AB183890B43838102E004
:101E200083898B43838170478182704741EA020333
:101E3000A0F8483070471AB183890B43838102E0D0
:101E400083898B438381704701894FF6F872114073
:101E5000018170470A46002101894FF68F731940AE
:101E600011430181704730B504460D46294620468E
:101E7000FFF7F0FF208940F00700208130BD2DE9F9
:101E8000F04104460D4616461F46602D06D13B46DE
:101E9000012231462046FFF75AFE05E03B4601226B
:101EA00031462046FFF79DFE29462046FFF7D2FF28
:101EB000208940F007002081BDE8F08130B50C4654
:101EC00000210189C9B24FF6FF7505EA03251543C4
:101ED00025432943018130BD2DE9F04105460E46D9
:101EE00017469846002443463A4631462846FFF7AF
:101EF000E5FF2C894FF6F870044044F007044FF6D4
:101F00008F70044044F070042C81BDE8F081F0B57E
:101F100004460D4616461F463B4632462946204695
:101F2000FFF7CCFF208940F480402081F0BD01857F
:101F3000828270470A46002101884FF68F7319404C
:101F4000114301807047F0B50C4615461E4600212E
:101F5000002200230189028B038C4FF6F877394069
:101F600021434FF6FC473A4040F201173A434FF6FF
:101F7000DD773B404FF6FF7707EA06172F433B43D9
:101F8000018102830384F0BD0A460021018B4FF6D4
:101F90008F7319401143018370470A460021018B5A
:101FA00048F6FF7319404FF6FF7303EA0223194303
:101FB000018370470A460021818B4FF68F731940C9
:101FC0001143818370470A460021818B48F6FF73D5
:101FD00019404FF6FF7303EA0223194381837047C8
:101FE00021B1028842F08002028004E002884FF6AC
:101FF0007F731A400280704721B1828842F0040248
:10200000828004E082884FF6FB731A40828070471A
:1020100021B1828842F00802828004E082884FF673
:10202000F7731A408280704721B1828842F0010222
:10203000828004E082884FF6FE731A4082807047E7
:102040000A460021018B4FF6F773194011430183B3
:1020500070470A460021018B4FF2FF7319404FF67B
:10206000FF7303EA02231943018370470A460021E4
:10207000818B4FF6F77319401143818370470A46ED
:102080000021818B4FF2FF7319404FF6FF7303EA73
:1020900002231943818370470A460021018B4FF6C2
:1020A000FB7319401143018370470A460021018BDD
:1020B0004FF6FF3319404FF6FF7303EA022319432B
:1020C000018370470A460021818B4FF6FB7319404C
:1020D0001143818370470A460021818B4FF6FF33FD
:1020E00019404FF6FF7303EA0223194381837047B7
:1020F0000A460021018B4FF67F731940114301837B
:1021000070470A460021018BC1F30E014FF6FF73A1
:1021100003EA02231943018370470A460021818B99
:102120004FF67F7319401143818370470A4600219F
:10213000818BC1F30E014FF6FF7303EA02231943AB
:10214000818370470A460021018C4FF6FD731940C8
:102150001143018470470A460021018C4FF6F77342
:1021600019401143018470470A460021018C4FF643
:10217000DF7319404FF6FF7303EA0213194301841A
:1021800070470A460021018C4FF67F7319404FF6C5
:10219000FF7303EA02131943018470470A460021C2
:1021A000018C4FF6FF5319404FF6FF7303EA0223E9
:1021B0001943018470470A460021018C4FF2FF73D6
:1021C00019404FF6FF7303EA022319430184704755
:1021D0000A460021018C4DF6FF7319404FF6FF733C
:1021E00003EA023319430184704730B50023012408
:1021F0008C40A3B2048C9C430484048C02FA01F545
:10220000ADB22C43048430BD30B5002304248C408F
:10221000A3B2048C9C430484048C02FA01F5ADB291
:102220002C43048430BD70B50346002000241846BA
:10223000183001258D40ACB21D8CA5431D8409B119
:10224000082909D100EB6100056825F070050560DB
:102250000568154305600EE00D1FC5F34E052844C3
:10226000056825F4E045056005684FF6FF7606EA47
:1022700002263543056070BD21B1028842F002029A
:10228000028004E002884FF6FD731A400280704716
:1022900021B1028842F00402028004E002884FF675
:1022A000FB731A400280704721B1828842F080029D
:1022B000828004E082884FF67F731A4082807047E4
:1022C00002884FF6F7731A40028002880A430280A0
:1022D000704782884FF68F731A40828082880A4343
:1022E0008280704702894FF6F8731A400281028992
:1022F0000A430281704702894FF67F731A400281B8
:1023000002890A4302817047818470478185704742
:10231000818670470187704781877047A0F8401019
:10232000704702884FF6FF431A40028002880A4332
:10233000028070470146888E70470146088F7047BB
:102340000146888F70470146B1F84000704701464A
:10235000888C70470146088D704702460020138A1A
:102360000B400BB1012000E000207047CA430282FD
:10237000704730B50246002000230024158A05EA84
:102380000103958905EA010413B10CB1012000E0B5
:10239000002030BDCA43028270470000314901432A
:1023A000314A1160704770B5002100230F22C478B4
:1023B00004B32D4C246804F4E064C4F5E064210AFD
:1023C000C1F10403CA40447804FA03F1847814404C
:1023D00021430901254C0678A155047804F01F0516
:1023E0000124AC4005786D11AD0005F1E025C5F87C
:1023F000004109E0047804F01F050124AC401C4DA5
:102400000678761145F8264070BD1A4A0A40024304
:10241000154B1B1F1A60704739B1134A121D126801
:102420000243114B1B1D1A6006E00F4A121D126871
:1024300082430D4B1B1D1A607047042808D14FF0D2
:10244000E021096941F004014FF0E022116107E049
:102450004FF0E021096921F004014FF0E022116101
:10246000704700000000FA050CED00E000E400E019
:1024700080E100E080FFFF1F10B50446CC48844295
:1024800008D10121042000F04DFB0021042000F0C0
:1024900049FB46E0C748844208D10121082000F0EA
:1024A00041FB0021082000F03DFB3AE0C248844295
:1024B00008D10121102000F035FB0021102000F090
:1024C00031FB2EE0BD48844208D10121202000F0DC
:1024D00029FB0021202000F025FB22E0B84884429F
:1024E00008D10121402000F01DFB0021402000F018
:1024F00019FB16E0B348844208D10121802000F086
:1025000011FB0021802000F00DFB0AE0AE48844260
:1025100007D10121801500F005FB0021A01500F076
:1025200001FB10BD10B50121084600F0FBFA0021A7
:10253000012000F0F7FA10BD2DE9F0410246002518
:102540000026002000230024002791F803C00CF08F
:102550000F0591F803C00CF0100CBCF1000F03D074
:1025600091F802C04CEA050591F800C0BCF1000FDB
:1025700031D0146800202BE04FF0010C0CFA00F36E
:10258000B1F800C00CEA03069E4220D183004FF050
:102590000F0C0CFA03F7BC4305FA03FC4CEA0404E5
:1025A00091F803C0BCF1280F06D14FF0010C0CFAD2
:1025B00000FCC2F814C00AE091F803C0BCF1480F57
:1025C00005D14FF0010C0CFA00FCC2F810C0401C01
:1025D0000828D1D31460B1F800C0BCF1FF0F34DD7E
:1025E000546800202EE000F1080C4FF0010808FAB2
:1025F0000CF3B1F800C00CEA03069E4221D183001F
:102600004FF00F0C0CFA03F7BC4305FA03FC4CEA3D
:10261000040491F803C0BCF1280F05D100F1080CA7
:1026200008FA0CF8C2F8148091F803C0BCF1480F06
:1026300007D100F1080C4FF0010808FA0CF8C2F8B5
:102640001080401C0828CED35460BDE8F0814FF6BE
:10265000FF710180022181700421C1707047024620
:10266000002093680B400BB1012000E00020704770
:102670000146886880B2704702460020D3680B404C
:102680000BB1012000E0002070470146C86880B20D
:10269000704701617047416170470AB1016100E014
:1026A00041617047C16070474FF480320A438261D4
:1026B0008161826182698269704702460020434BD2
:1026C00018684FF68073184040EA021008433F4BE9
:1026D000186070473E49C8617047F0B50A4600234C
:1026E00000240021002500F00046B6F1004F02D181
:1026F000364EF16901E0354E7168C0F3034583B28F
:1027000000F44016B6F5401F08D121F070612F4E3D
:10271000766826F070662D4F7E6012E000F4801619
:10272000B6F5801F06D1032606FA05F4A14341F051
:10273000706106E0460D360103FA06F6B14341F03A
:10274000706122B1460D360103FA06F6314300F0FE
:102750000046B6F1004F02D11C4EF16101E01B4E64
:102760007160F0BD30B500228B071C0F0F2303FAF8
:1027700004F2164B08338C1053F824309343134C57
:1027800008348D1044F8253023468C1053F824303B
:102790008C07240F00FA04F423430C4C08348D10EA
:1027A00044F8253030BD0A49DC310860704700002C
:1027B00000080140000C01400010014000140140DD
:1027C00000180140001C01400020014000000140B1
:1027D000000020420948804709480047FEE7FEE71D
:1027E000FEE7FEE7FEE7FEE7FEE7FEE7FEE7FEE7C1
:1027F00004480549054A064B7047000017040008C5
:1028000031010008C8300020C8360020C83200203E
:10281000C8320020DF48006840F00100DD49086050
:1028200008464068DC490840DA49486008460068C4
:10283000DA490840D74908600846006820F480203B
:1028400008600846406820F4FE0048604FF41F000E
:1028500088607047CF49096821F48031CD4A116002
:102860001146096821F480211160B0F5803F03D042
:10287000B0F5802F0ED106E0C649096841F48031D9
:10288000C44A116007E0C349096841F4A021C14A64
:10289000116000E000BF00BF704710B50146002284
:1028A000002300204A11012A02D1BA4C236806E015
:1028B000022A02D1B74C236A01E0B64C636A01F0E8
:1028C0001F02012494401C400CB1012000E00020B4
:1028D00010BD38B5002000900024002500BF312035
:1028E000FFF7DBFF05460098401C00900098B0F50C
:1028F000A06F01D0002DF2D03120FFF7CEFF08B13C
:10290000012400E00024204638BD01460020A14AF1
:10291000106820F0F80040EAC10010607047A0493C
:1029200008607047024600209A4B586820F47C10DB
:1029300042EA01031843974B58607047984908666C
:10294000704701460020934A506820F00300084376
:10295000506070478F48406800F00C007047014697
:1029600000208C4A506820F0F00008435060704707
:1029700001460020874A506820F4E0600843506018
:10298000704701460020834A506820F4605040EAB6
:10299000C1005060704729B17E4A527A02437D4B94
:1029A0005A7204E07B4A527A82437A4B5A727047D9
:1029B0007B49D8310860704701460020754A50684D
:1029C00020F440400843506070470021714A203293
:1029D0001170704A82F82010012802D004280AD110
:1029E00004E001216B4A2032117005E00521694A9B
:1029F0002032117000E000BF00BF704769490860D5
:102A000070476449096A0143624A11627047654927
:102A100044390860704730B50021002200240023AB
:102A20005C4D6D6805F00C0121B1042905D0082921
:102A300023D105E05C4D056022E05B4D05601FE0A1
:102A4000544D6D6805F47012524D6D6805F4803474
:102A5000022505EB92421CB9544D554305600BE02D
:102A60004C4D6D6805F400351DB1504D5543056062
:102A700002E04D4D5543056002E04B4D056000BF3F
:102A800000BF444D6D6805F0F0010909484D6B5CCD
:102A90000568DD4045603F4D6D6805F4E061090A59
:102AA000434D6B5C4568DD4085603A4D6D6805F4CB
:102AB0006051C90A3E4D6B5C4568DD40C560354DCF
:102AC0006D6805F44041890B3A4D6B5CC568B5FBF8
:102AD000F3F5056130BD29B12E4A526902432D4BF1
:102AE0005A6104E02B4A526982432A4B5A6170476B
:102AF00029B1284A92690243264B9A6104E0254A8B
:102B000092698243234B9A61704729B1214AD26965
:102B10000243204BDA6104E01E4AD26982431D4B16
:102B2000DA61704729B11B4AD2680243194BDA6057
:102B300004E0184AD2688243164BDA60704729B124
:102B4000144A12690243134B1A6104E0114A1269D4
:102B50008243104B1A617047124940390860704730
:102B60000F49C86470470B49C87170470948406AEB
:102B700040F0807007494862704701460020054ACE
:102B800092680A400AB1012000E000207047014924
:102B900088727047001002400000FFF8FFFFF6FE49
:102BA000000042428004424200127A0000093D00C7
:102BB0004E0000205E00002010B50446FB48844211
:102BC00009D101218803FFF7ADFF00214FF48040B8
:102BD000FFF7A8FF32E0F648844209D101214804FA
:102BE000FFF7ADFF00214FF40030FFF7A8FF25E00D
:102BF000F048844209D101218804FFF7A0FF002199
:102C00004FF48020FFF79BFF18E0EB48844209D186
:102C10000121C804FFF793FF00214FF40020FFF7C4
:102C20008EFF0BE0E548844208D101210805FFF73B
:102C300086FF00214FF48010FFF781FF10BD2DE9C2
:102C4000F04786B005460E460024A24600BFA146C6
:102C50000027B08900B100BF2F462C8A4CF6FF70C8
:102C60000440F08804432C82AC894EF6F3100440F3
:102C7000B08831890843718908430443AC81AC8A28
:102C80004FF6FF400440B0890443AC8201A8FFF72F
:102C9000C2FEC648874202D1DDF810A001E0DDF88F
:102CA0000CA0A88900F4004040B10AEBCA0000EB78
:102CB0000A1031684900B0FBF1F807E00AEBCA00DE
:102CC00000EB0A1031688900B0FBF1F86420B8FB12
:102CD000F0F004012009642101FB1089A88900F4A7
:102CE000004040B1322000EBC900B0FBF1F000F031
:102CF0000700044308E0322000EB09106421B0FB18
:102D0000F1F000F00F0004432C8106B0BDE8F0871D
:102D10004FF41651016000218180C18001810C2196
:102D2000418100218181704710B502460020108A40
:102D30004FF2FF0318400B884C8823438C882343B1
:102D4000CC8823431843108210BD002101804180AC
:102D50008180C180704721B1828942F40052828112
:102D600004E082894DF6FF731A4082817047F0B506
:102D70000346002400260025002040F66A17B942C9
:102D800000D100BF1846C1F3421401F01F0601270D
:102D900007FA06F5012C01D10C3004E0022C01D118
:102DA000103000E014301AB107682F43076002E0CA
:102DB0000768AF430760F0BD1AB1838A0B43838273
:102DC00002E0838A8B4383827047028A4FF6F07356
:102DD0001A400282028A0A430282704782894FF2B5
:102DE000FF731A40828182890A438281704721B130
:102DF000828942F00202828104E082894FF6FD73EB
:102E00001A4082817047028A4FF6DF731A400282AD
:102E1000028A0A430282704721B1028A42F4804248
:102E2000028204E0028A4BF6FF731A400282704766
:102E3000C1F308028280704701468888C0F3080009
:102E40007047818941F0010181817047028BD2B2C4
:102E50000283028B42EA012202837047028B02F452
:102E60007F420283028B0A430283704721B1828A28
:102E700042F02002828204E0828A4FF6DF731A4019
:102E80008282704721B1828A42F01002828204E07D
:102E9000828A4FF6EF731A408282704721B1828A8C
:102EA00042F00802828204E0828A4FF6F7731A40E9
:102EB0008282704721B1828942F40042828103E01C
:102EC0008289C2F30E028281704721B1828A42F464
:102ED0000062828204E0828A4FF2FF731A4082828B
:102EE0007047828A4FF6FB731A408282828A0A43B5
:102EF0008282704721B1828A42F00202828204E01B
:102F0000828A4FF6FD731A40828270470246002083
:102F1000B1F5007F00D100BF13880B400BB1012039
:102F200000E00020704701F40072B2F5007F00D18C
:102F300000BFCA430280704770B5024600240023D8
:102F40000025002040F66A16B14200D100BFC1F34F
:102F5000421501F01F03012606FA03F3012D02D1E9
:102F60009689334006E0022D02D1168A334001E0F3
:102F7000968A33400C12012606FA04F4168834406F
:102F800013B10CB1012000E0002070BD10B500228B
:102F9000002340F66A14A14200D100BF0A120124A6
:102FA0009440A3B2DC43048010BD0000003801400F
:102FB0000044004000480040004C004000500040E9
:102FC000704770B5064600F00DF8046805463046B7
:102FD0000A22002100F00AF82C6070BD704770478B
:102FE0007047704700487047643000202DE9F04773
:102FF00091460F4680460446002614F8015B2DB129
:1030000000F030F80068405DC007F6D12B2D02D0EB
:103010002D2D18D0641E4A463946204600F02AF865
:1030200027B13968A14201D1C7F800804FF00204EE
:1030300071050BD54042002803DDFFF7D3FF046084
:10304000A007BDE8F08746F48066E4E70028F8DAD8
:10305000FFF7C8FF04606FF00040F2E700487047D8
:103060006430002010B500F079F8001D10BD00BFDD
:103070009D0100002DE9F05F824615468B46002732
:103080000AF10104B9460078302801D09DB113E05F
:1030900014F8010B0127782803D0582801D045B136
:1030A0000AE00DB1102D07D1002714F8010B1025EF
:1030B00002E0082500E00A250026B0460EE005FBE8
:1030C000080005FB06F101271FFA80F801EB104606
:1030D000B6F5803F00D3B94614F8010B294600F03D
:1030E00041F80028EBDABBF1000F05D00FB1641EE8
:1030F00000E05446CBF80040B9F1000F06D0FFF7CE
:1031000071FF02210160C81EBDE8F09F48EA064039
:10311000FAE77546FFF7A2FFAE460500694653463B
:1031200020F00700854618B020B5FFF761FBBDE829
:1031300020404FF000064FF000074FF000084FF01E
:10314000000B21F00701AC46ACE8C009ACE8C009AF
:10315000ACE8C009ACE8C0098D467047004870472C
:10316000843000203A2800D2303820F02002412A52
:1031700001D3A2F13700884201D34FF0FF307047EE
:103180000446AFF300802046FDF722F84FF0013CE3
:1031900050F8042B51F8043B9A4221D1A2EB0C03C6
:1031A000934313EACC1317D150F8042B51F8043B86
:1031B0009A4215D1A2EB0C03934313EACC130BD123
:1031C00050F8042B51F8043B9A4209D1A2EB0C03AE
:1031D000934313EACC13DBD04FF00000704700BFDD
:1031E000D01A01BAB1FA81F101F0180122FA01F006
:1031F000CB40C1F12001DBB2C0B2C01A2CFA01F3FE
:10320000D11A914311EAC311E6D1704710B50029D4
:103210000AD00878002807D005487844FFF7B6FFA1
:10322000002801D0002010BD0248784410BD0000E5
:10323000460000003E000000DC05DC05DC05320035
:103240007033000800000020640000006C010008DA
:10325000D4330008640000206436000088010008B0
:103260001001000043000000F8FFFFFF0040404055
:103270004040404040404141414141404040404049
:1032800040404040404040404040404040050202F5
:1032900002020202020202020202020202202020B4
:1032A0002020202020202002020202020202909010
:1032B000909090901010101010101010101010100E
:1032C0001010101010101010020202020202888862
:1032D000888888880808080808080808080808086E
:1032E0000808080808080808020202024000000056
:1032F00000000000000000000000000000000000CE
:1033000000000000000000000000000000000000BD
:1033100000000000000000000000000000000000AD
:10332000000000000000000000000000000000009D
:10333000000000000000000000000000000000008D
:10334000000000000000000000000000000000007D
:10335000000000000000000000000000000000006D
:10336000000000000000000000000000000000005D
:1033700000001B000000000000A24A040000000042
:103380000000000001020304060708090000000015
:103390000000000000000000DC05DC05DC05DC05A9
:1033A000DC05DC050000000000000000000000005B
:1033B000000000000000000000000000000000000D
:1033C00000000102030401020304060708090204C5
:0433D00006080000EB
:020000040801F1
:10000000F401F401DC050807C409C409DC0508078C
:08001000DC05DC05DC05080736
:020000040801F1
:10001800DC05DC05DC05C800E803E803DC05C800EE
:0400000508000131BD
:00000001FF
