:020000040800F2
:10000000804C0020114C0008990300089B03000855
:100010009F030008A3030008A703000800000000D6
:10002000000000000000000000000000AB0300081A
:10003000AD03000800000000AF030008B103000892
:100040002B4C00082B4C00082B4C00082B4C0008B4
:100050002B4C00082B4C00082B4C00082B4C0008A4
:100060002B4C00082B4C00082B4C00082B4C000894
:100070002B4C00082B4C00082B4C00082B4C000884
:100080002B4C00082B4C00082B4C00082B4C000874
:100090002B4C00082B4C00082B4C00082B4C000864
:1000A0002B4C00082B4C00082B4C00082B4C000854
:1000B0002B4C00082B4C00082B4C00082B4C000844
:1000C0002B4C00082B4C00082B4C00082B4C000834
:1000D0002B4C0008474B00082B4C0008D94800085F
:1000E0002B4C00082B4C00082B4C00082B4C000814
:1000F0002B4C00082B4C00082B4C00082B4C000804
:100100002B4C00082B4C00082B4C00082B4C0008F3
:100110002B4C00082B4C00082B4C00082B4C0008E3
:100120002B4C00082B4C00082B4C00082B4C0008D3
:1001300000F002F800F062F80AA090E8000C824497
:100140008344AAF10107DA4501D100F057F8AFF274
:10015000090EBAE80F0013F0010F18BFFB1A43F0A5
:1001600001031847BC8D0000DC8D00000A444FF0ED
:10017000000C10F8013B13F0070408BF10F8014B06
:100180001D1108BF10F8015B641E05D010F8016B4B
:10019000641E01F8016BF9D113F0080F1EBF10F8AF
:1001A000014BAD1C0C1B09D16D1E58BF01F801CBD2
:1001B000FAD505E014F8016B01F8016B6D1EF9D555
:1001C0009142D6D37047000000230024002500266A
:1001D000103A28BF78C1FBD8520728BF30C148BFAA
:1001E0000B607047642905F07F83782905F0B88398
:1001F000002070471FB51FBD10B510BD05F00CFEE7
:100200001146FFF7F7FF00F009F805F02AFE03B4E6
:10021000FFF7F2FF03BC04F03BFC000000F039F9EB
:1002200004F0CCFB4FF4E13004F041FC4FF41640F5
:1002300004F002FB00F016FC04F03AF804F012F8A7
:1002400066E03448008800F40040002852D032486C
:100250000078FF2819D131A004F0C4FC4FF4FA70E3
:1002600004F0E9FB4FF4FA7004F0E5FB4FF4FA7088
:1002700004F0E1FB03F0F6FF012034490870344933
:10028000087034A004F0AEFC31E023480078FE286A
:100290000DD12E48007830B101202D4908702DA0D5
:1002A00004F0A0FC23E030A004F09CFC1FE01A48FE
:1002B0000078FD2806D10020254908702FA004F001
:1002C00091FC14E00020324908800AE01249304ACB
:1002D0001288885C04F078FC2D480088401C2C496A
:1002E00008802B4800882B4909888842EEDB0020D3
:1002F0000849088016480078012809D104F054FA0A
:1003000004F06BF804F06DF94FF4967004F093FB71
:1003100097E70000E8030020200600205954B0DAD7
:10032000BAC3B3F5CABCBBAFD7CBCAC62CC1BDC319
:10033000EBBAF3D7D4B6AFBFAACABCB3F5CABCBB3D
:10034000AFCCE5B8D0C4A3CABD0D0A00030000209D
:10035000020000205954CCE5B8D0C4A3CABDD2D104
:10036000B4F2BFAA0D0A00005954C7EBB3F5CABCDA
:10037000BBAFCCE5B8D00D0A000000005954CCE565
:10038000B8D0C4A3CABDD2D1B9D8B1D50D0A000026
:1003900000000020EA030020704700BFFEE700BF16
:1003A000FEE700BFFEE700BFFEE7704770477047FB
:1003B000704700000CB50020019000906C48006868
:1003C00040F480306A49086000BF6948006800F462
:1003D000003000900198401C0190009818B90198D5
:1003E000B0F5A06FF1D16248006800F4003010B1A0
:1003F0000120009001E0002000900098012843D1E6
:100400005C48006840F010005A49086008460068DF
:1004100020F0030008600846006840F00200086011
:10042000534840685249486008464068486008465A
:10043000406840F4806048600846406820F47C10C2
:1004400048600846406840F4E81048600846006884
:1004500040F08070086000BF4548006800F0007000
:100460000028F9D04248406820F003004049486025
:100470000846406840F00200486000BF3C484068C1
:1004800000F00C000828F9D10CBD10B5FFF792FF61
:1004900010BD10B53648006840F0010034490860CE
:1004A00008464068344908403149486008460068B9
:1004B000324908402E4908600846006820F4802030
:1004C00008600846406820F4FE0048604FF41F00B2
:1004D0008860FFF7DAFF4FF000602949086010BD1F
:1004E00010B5002100200022214B5B6803F00C01B5
:1004F00021B1042906D0082928D107E0214B224C3C
:10050000236027E01F4B204C236023E0184B5B68DF
:1005100003F47010164B5B6803F48032022303EB84
:10052000904022B9194B4343174C23600DE0104B08
:100530005B6803F4003323B1144B4343124C236034
:1005400003E0104B4343104C236003E00D4B0E4C73
:10055000236000BF00BF064B5B68C3F303130C4C62
:10056000E15C094B1B68CB40074C236010BD0000C9
:1005700000100240002002400000FFF8FFFFF6FEDE
:1005800008ED00E000127A000400002000093D00A0
:100590000800002010B54FF48071F94804F0D3FC36
:1005A0004FF40071F64804F0CEFC4FF40071F448AB
:1005B00004F0CBFC4FF48071F14804F0C6FC10BD90
:1005C00010B54FF48071EE4804F0BDFC4FF400719B
:1005D000EB4804F0BAFC4FF40071E94804F0B3FCB6
:1005E00010BD10B54FF48071E54804F0ACFC4FF439
:1005F0008071E34804F0A9FC10BD2DE9F0410546E7
:100600002C464FF48071DE4804F09FFC00261CE06D
:10061000274607F08007802F04D1B900D84804F09E
:1006200092FC04E04FF40071D54804F08EFC6006A3
:10063000040E4FF48071D24804F085FC4FF48071B1
:10064000CF4804F082FC701CC6B2082EE0DBBDE887
:10065000F08110B50446FFF79DFF7820FFF7CDFF2E
:10066000FFF7BFFF0020FFF7C8FFFFF7BAFF2046E4
:10067000FFF7C3FFFFF7B5FFFFF7A2FF10BD10B5EF
:100680000446FFF787FF7820FFF7B7FFFFF7A9FFC2
:100690004020FFF7B2FFFFF7A4FF2046FFF7ADFFB2
:1006A000FFF79FFFFFF78CFF10BD70B504460D46A6
:1006B0001DB1E0B2FFF7E3FF02E0E0B2FFF7C9FFD0
:1006C00070BD70B50646002418E004F1B0000021AA
:1006D000FFF7EBFF00210846FFF7E7FF002110209E
:1006E000FFF7E3FF002505E001213046FFF7DDFFBE
:1006F000681CC5B2802DF7DB601CC4B2082CE4DB9B
:1007000070BD06E041F6650100E0491E0029FCD1FC
:10071000401E0028F6D17047014605E0002001E0A8
:10072000421CD0B27B28FBDB0A00A1F10101F5D10C
:10073000704770B504460D4605F1B0000021FFF783
:10074000B4FF102141EA14100021FFF7AEFF04F0BE
:100750000F000021FFF7A9FF70BD10B500218D200B
:10076000FFF7A3FF00211420FFF79FFF0021AF2018
:10077000FFF79BFF10BD10B500218D20FFF795FFFF
:1007800000211020FFF791FF0021AE20FFF78DFF21
:1007900010BD70B5002418E004F1B0000021FFF78F
:1007A00084FF00210846FFF780FF00211020FFF79B
:1007B0007CFF002505E001210020FFF776FF681C83
:1007C000C5B2802DF7DB601CC4B2082CE4DB70BD21
:1007D00070B5002418E004F1B0000021FFF765FFB8
:1007E00000210846FFF761FF00211020FFF75DFFA1
:1007F000002505E001210846FFF757FF681CC5B238
:10080000802DF7DB601CC4B2082CE4DB70BD2DE941
:10081000F04707460E469046994600250024A8F169
:100820002000C5B27F2F02DD0027B01CC6B2B9F18F
:10083000100F24D131463846FFF77BFF002408E033
:1008400004EB05114F4A505C0121FFF72EFF601C9D
:10085000C4B2082CF4DB701CC1B23846FFF769FF44
:10086000002409E004EB05110831464A505C0121DF
:10087000FFF71BFF601CC4B2082CF3DB12E031460B
:100880003846FFF756FF00240AE005EB45013E4AD3
:1008900002EB4101085D0121FFF707FF601CC4B2B4
:1008A000062CF2DBBDE8F08710B50246012000E01F
:1008B00050430B00A1F10104E1B2F9D110BD2DE9C3
:1008C000FF5F074691461E460E9D4FF0000A00242A
:1008D00035E0301B401EC1B20A20FFF7E5FFB9FB2F
:1008E000F0F00A21B0FBF1F201FB1208BAF1000F9F
:1008F00014D1701EA04211DDB8F1000F0CD1AB462F
:1009000005EBDB71491001FB0471C8B22B462022B4
:100910000199FFF77CFF10E04FF0010AAB4605EBB1
:10092000DB71491001FB0471C8B208F13001CAB291
:100930002B460199FFF76BFF00BF601CC4B2B442A5
:10094000C7DBBDE8FF9F2DE9F04104460F46154681
:10095000984600260FE0AA5D434639462046FFF739
:1009600056FF04F10800C4B2782C02DD0024B81C44
:10097000C7B2701CC6B2A85D0028ECD1BDE8F081FA
:10098000000C01406E7B0008467900082DE9F0411B
:1009900080460E461546002731464046FFF7C9FE01
:1009A00000240AE0744A02EB8511085D0121FFF77B
:1009B0007CFE781CC7B2601CC4B2102CF2DB701C29
:1009C000C1B24046FFF7B5FE00240CE06900491CA7
:1009D000694A02EB4111085D0121FFF766FE781CB0
:1009E000C7B2601CC4B2102CF0DBBDE8F0812DE969
:1009F000F05F06460F4690461C46DDF828A04FF0F3
:100A0000000BE11704EB5171C910A4EBC10131B91E
:100A10002046E11704EB5171C1F3C70506E02046FB
:100A2000E11704EB5171C910491CCDB23D4615E0E8
:100A300029463046FFF77DFEB1460BE059460BF1E3
:100A4000010B1AF801000121FFF72FFE09F1010047
:100A500000F0FF09C145F1DB681CC5B2A542E7DB28
:100A6000BDE8F09F08B50121082004F07BFC4FF49D
:100A70004070ADF8000010208DF8030003208DF8C1
:100A8000020069463D4804F0B1F9A0213C4804F059
:100A90005AFA4FF4487003F0CEFF0021AE20FFF762
:100AA00004FE00210846FFF700FE00211020FFF79A
:100AB000FCFD00214020FFF7F8FD0021B020FFF7EA
:100AC000F4FD00218120FFF7F0FD0021FF20FFF75A
:100AD000ECFD0021A120FFF7E8FD0021A620FFF793
:100AE000E4FD0021A820FFF7E0FD00213F20FFF7F3
:100AF000DCFD0021C820FFF7D8FD0021D320FFF73F
:100B0000D4FD00210846FFF7D0FD0021D520FFF7D6
:100B1000CCFD00218020FFF7C8FD0021D820FFF781
:100B2000C4FD00210520FFF7C0FD0021D920FFF7FB
:100B3000BCFD0021F120FFF7B8FD0021DA20FFF70E
:100B4000B4FD00211220FFF7B0FD0021DB20FFF7EC
:100B5000ACFD00213020FFF7A8FD00218D20FFF71C
:100B6000A4FD00211420FFF7A0FD0021AF20FFF716
:100B70009CFDFFF70EFE08BD18000020000C014090
:100B80000008014070B505460C4600F0CAF9D020B7
:100B900000F07BFA00F006FA18B100F0E2F901204B
:100BA00070BD284600F071FA00F0FCF9204600F014
:100BB0006CFA00F0F7F918B100F0D3F90120EFE773
:100BC00000F0CFF90020EBE770B504460025BC2CFF
:100BD00001DB012510E0622C01DB02250CE02A2C50
:100BE00001DB032508E0142C01DB042504E00A2CBA
:100BF00001DB052500E0062529461A20FFF7C2FF84
:100C000070BD70B50446B4F57A7F01DD4FF47A7497
:100C1000042C00DA04244FF47A7090FBF4F0401EA8
:100C2000C5B229461920FFF7ADFF0546264604EB5D
:100C3000D671C1F34F00FFF7C7FF70BD70B5044612
:100C400000F06FF9D02000F020FA00F0ABF9204658
:100C500000F01BFA00F0A6F900F063F9D12000F0D3
:100C600014FA00F09FF9002000F03AFA054600F06F
:100C700078F9284670BD10B50446E006010E1C2028
:100C8000FFF780FF10BD10B50446E006010E1B20E3
:100C9000FFF778FF10BD10B500F02FF9C82003F062
:100CA000CAFE80216B20FFF76DFF642003F0C3FEB6
:100CB00000216B20FFF766FF0320FFF7E4FF002011
:100CC000FFF7D9FF3220FFF79CFF00213820FFF704
:100CD00059FF00216A20FFF755FF00212320FFF76D
:100CE00051FF80213720FFF74DFF7520FFF7A6FF4A
:100CF0000446682C0BD101216B20FFF743FF002134
:100D00006C20FFF73FFF3220FFF77BFF01E001205F
:100D100010BD0020FCE72DE9F04106460F461446C1
:100D20001D4600F0FEF8002141EA4601C8B200F07D
:100D3000ACF900F037F920B100F013F90120BDE85B
:100D4000F081384600F0A1F900F02CF900F0E9F844
:100D5000012101EB4601C8B200F097F900F022F939
:100D60000DE0012C04D1002000F0BAF9287003E056
:100D7000012000F0B5F92870601EC4B26D1C002C73
:100D8000EFD100F0EEF80020D9E72DE9F84F6B46DF
:100D9000022241216820FFF7BEFF9DF801009DF867
:100DA000001040EA01200FFA80FA504605F087FE55
:100DB000804600224A4B05F0FBFC0646494A4A4B56
:100DC00005F03AFC044605F005FC834647495846C1
:100DD00006F0CEFB044606F02FFB00B2BDE8F88F0C
:100DE0002DE9FC4104460D4616466B46062243217A
:100DF0006820FFF790FF0746BFB99DF801009DF8F6
:100E0000001040EA012000B220809DF803009DF808
:100E1000021040EA012000B228809DF805009DF8EC
:100E2000041040EA012000B230803846BDE8FC8161
:100E30002DE9FC4104460D4616466B4606223B2131
:100E40006820FFF768FF0746BFB99DF801009DF8CD
:100E5000001040EA012000B220809DF803009DF8B8
:100E6000021040EA012000B228809DF805009DF89C
:100E7000041040EA012000B230803846BDE8FC8111
:100E80002DE9F04105460E461746984600F049F810
:100E9000002141EA4501C8B200F0F7F800F082F8FD
:100EA00020B100F05EF80120BDE8F081304600F08E
:100EB000ECF800F077F800240CE018F8040000F0DB
:100EC000E4F800F06FF818B100F04BF80120EBE700
:100ED000601CC4B2BC42F0DB00F043F80020E3E742
:100EE00000407540A4703D0AD74342400000C8420C
:100EF00010B5022003F07BFD10BD08B501210820CC
:100F000004F030FA4FF44070ADF8000010208DF876
:100F1000030003208DF8020069468A4803F066FF4B
:100F200008BD10B58748001D006820F0F000854915
:100F3000091D08600846006840F030000860012084
:100F4000814908608149C1F8A001FFF7D1FF002065
:100F50007D490860FFF7CCFF00207C49C1F8A00163
:100F600010BD10B57748001D006820F0F0007549ED
:100F7000091D08600846006840F030000860002045
:100F80007149091F08607149C1F8A401FFF7B0FF5A
:100F900001206D49091F08606C49C1F8A401FFF7E1
:100FA000A7FF10BD10B500246648001D006820F0A2
:100FB000F0006449091D08600846006840F08000A0
:100FC0000860012060490860FFF792FF01205F4937
:100FD000C1F8A001FFF78CFF07E0601CC4B2FA2C37
:100FE00003DDFFF7BEFF012010BD574880380068C1
:100FF0000028F2D15449091F086000BFF4E710B57A
:1010000000205149091F08604E48001D006820F06B
:10101000F0004C49091D08600846006840F03000A7
:10102000086000204949C1F8A401FFF761FF0120D1
:101030004549091F0860FFF75BFF00204349C1F8DD
:10104000A00110BD10B500203F49091F08603D48B0
:10105000001D006820F0F0003A49091D08600846AC
:10106000006840F03000086001203849C1F8A40150
:10107000FFF73EFF01203449091F0860FFF738FFE2
:1010800000203249C1F8A00110BD70B504462D48BA
:10109000001D006820F0F0002A49091D086008467C
:1010A000006840F03000086000202749091F0860F0
:1010B000002512E0E009244908606006040E0120C2
:1010C0002249C1F8A001FFF713FF00201E49091FA4
:1010D0000860FFF70DFF681CC5B2082DEADB70BD84
:1010E00070B5054600241748001D006820F0F00088
:1010F0001449091D08600846006840F08000086037
:10110000002615E000201049091F0860FFF7F0FED7
:1011100001200E49C1F8A0016006040E0A4880387B
:10112000006808B1601CC4B2FFF7E2FE701CC6B2D2
:10113000082EE7DB15B9FFF785FF01E0FFF75FFF3A
:10114000204670BD000C0140A48121420080214254
:1011500038B50446F74890F82400C0B114B1022015
:10116000009001E000200090F24A1268D17BF14A21
:10117000526810786B460122FFF782FE10B14FF0E3
:10118000FF3038BD9DF80010EA48417423E0E9487B
:10119000807A10B94FF0FF30F3E724B1E548407C86
:1011A00008B10020EDE714B10120009001E000201B
:1011B0000090E04A1268D17BDE4A526810786B4694
:1011C0000122FFF75DFE10B14FF0FF30D9E79DF827
:1011D0000010D84841740020D3E738B500241FE040
:1011E000D4480068C07AA04204D0D2480068407D4C
:1011F000A04200D112E0CF49496808786B4601222D
:101200002146FFF788FD10B14FF0FF3038BD9DF843
:1012100000202146C8A004F033FB00BF601CC4B20C
:10122000C44840680079A042DADC0020EEE770B5DF
:1012300004460D46BF480068C07AA04204D0BD48AD
:101240000068407DA04202D14FF0FF3070BDB94828
:1012500040680079A04202DC4FF0FF30F6E7B54964
:10126000496808782B4601222146FFF754FDEDE737
:1012700038B50446AF4890F82300A04201D10020C1
:1012800038BD14B13020009001E000200090A94842
:10129000807C20B19DF8000040F002000090A5483D
:1012A00090F8220020B19DF8000040F080000090EE
:1012B000A04A1268117D9F4A526810786B4601223D
:1012C000FFF7DEFD10B14FF0FF30D9E7994880F805
:1012D00023400020D4E738B5044604F0700010B174
:1012E0000120009005E014B10020009001E04020B2
:1012F0000090904A1268917C8E4A526810786B4632
:101300000122FFF7BDFD20B100218A488172481EED
:1013100038BD9DF8000020F0400186480173002090
:10132000009004F0400020B99DF8000040F0040057
:10133000009004F0200020B99DF8000040F0020069
:10134000009004F0100020B99DF8000040F001006A
:10135000009004F0080020B99DF8000040F038002B
:101360000090744A1268D17C724A526810786B46B9
:101370000122FFF785FD20B100216E488172481ED1
:10138000C6E724B1082C02D00020FFF771FF69489E
:10139000847200210175322003F04DFB0020B7E775
:1013A00038B504466348807CA04201D1002038BD96
:1013B000002C46D05F4A126811795E4A5268107854
:1013C0006B460122FFF7A7FC10B14FF0FF30EEE7AC
:1013D0009DF8000020F020000090564A1268117914
:1013E000544A526810786B460122FFF749FD10B14C
:1013F0004FF0FF30DBE7032003F01DFB02200090DD
:101400004C4890F8220020B19DF8000040F0800088
:101410000090484890F8230020B19DF8000040F06B
:1014200030000090434A1268117D424A5268107899
:101430006B460122FFF724FD002851D04FF0FF300A
:10144000B5E73C4A126811793A4A526810786B46FF
:101450000122FFF760FC10B14FF0FF30A7E73548DD
:10146000807A00F0010028B19DF8000040F02000D3
:10147000009004E09DF8000020F0200000902D4A2C
:10148000126811792B4A526810786B460122FFF7D7
:10149000F7FC10B14FF0FF3089E7032003F0CBFADF
:1014A000244890F8220010B18020009001E0002034
:1014B0000090204890F8230020B19DF8000040F0F3
:1014C000300000901B4A1268117D1A4A5268107849
:1014D0006B460122FFF7D4FC10B14FF0FF3066E7F6
:1014E00014488474002062E708B51248807A10B965
:1014F0004FF0FF3008BD002000900E4A1268D17BEB
:101500000C4A526810786B460122FFF7B9FC10B103
:101510004FF0FF30EEE7074A12685179054A5268EA
:1015200010786B460122FFF7ABFC68B14FF0FF303B
:10153000E0E7000098030020252335783A20252392
:1015400035780D0A00000000F84A12681179F74A50
:10155000526810786B460122FFF792FC10B14FF0F1
:10156000FF30C7E7F14890F82400002853D00C2042
:101570000090EE4A12681179EC4A526810786B4676
:101580000122FFF77DFC10B14FF0FF30B2E73220AF
:1015900003F051FAC0200090E448807A00F0010086
:1015A00020B19DF8000040F020000090DF4A126852
:1015B0001179DE4A526810786B460122FFF760FC11
:1015C00010B14FF0FF3095E7D848407C10B10220B1
:1015D000009001E000200090D44A1268D17BD34AE9
:1015E000526810786B460122FFF74AFC10B14FF0A9
:1015F000FF307FE700200090CC4A12685179CB4A37
:10160000526810786B460122FFF73AFC002855D04B
:101610004FF0FF306EE704200090C44A1268117941
:10162000C24A526810786B460122FFF729FC10B1BC
:101630004FF0FF305EE7BD48807C20B9BB48807A20
:1016400000F0010010B94020009001E060200090FF
:10165000B64A12681179B54A526810786B46012271
:10166000FFF70EFC10B14FF0FF3043E7322003F0DC
:10167000E2F9AE48407C10B10120009001E000206A
:101680000090AA4A1268D17BA84A526810786B462B
:101690000122FFF7F5FB10B14FF0FF302AE7A34A14
:1016A00012685179A14A52681078A04B1033012278
:1016B000FFF7E6FB10B14FF0FF301BE7002019E702
:1016C00070B50446002624F00104984890F82400E0
:1016D00008B1002070BD9548807A10B94FF0FF30F6
:1016E000F8E79248057C807A2040904908740846C3
:1016F000007CA04202D04FF0FF3600E0002614B973
:101700008A48007D18B10120FFF722FD02E0002089
:10171000FFF71EFD3CB1FFF7E7FE20B183480574DB
:101720004FF0FF30D6E73046D4E738B504467F485F
:10173000807A10B94FF0FF3038BDBC2C02DB01209D
:10174000009015E0622C02DB0220009010E02A2CB1
:1017500002DB032000900BE0142C02DB042000903D
:1017600006E00A2C02DB0520009001E00620009034
:101770006E48C07A9DF80010884201D10020DBE756
:101780006A4A12689178694A526810786B46012259
:10179000FFF776FB10B14FF0FF30CDE79DF800105A
:1017A0006248C1720020C7E738B50446282C02DD24
:1017B0004FF0FF3038BDDCB90020FFF759FD0020A5
:1017C0008DF8000007208DF80100584A1268917CBE
:1017D000564A526810786B460222FFF751FB10B14F
:1017E0004FF0FF30E6E70021504801750020E1E7A7
:1017F0000120FFF73DFD20208DF80000012C06D1CF
:1018000000208DF801000520FFF78FFF17E0052C61
:1018100006DC01208DF801000520FFF786FF0EE0B1
:10182000142C06DC02208DF801000A20FFF77DFF52
:1018300005E003208DF801001420FFF776FF9DF8E6
:101840000100072101EB8010C0B28DF80100374A7A
:101850001268917C354A526810786B460222FFF775
:101860000FFB10B14FF0FF30A4E708212F48817221
:1018700000210173012101750020FFF721FF0020E5
:1018800098E738B504462948807A10B94FF0FF3000
:1018900038BD264890F8240010B14FF0FF30F7E72C
:1018A0002248007D50B134B1282C04DCE0B2FFF7AF
:1018B0007BFF0020ECE70020FFF776FF042C01DA25
:1018C000042404E0B4F57A7F01DD4FF47A744FF418
:1018D0007A7090FBF4F0401EC0B20090134A126878
:1018E0005178124A526810786B460122FFF7C8FA05
:1018F00010B14FF0FF30CBE79DF80000401C4FF4D3
:101900007A7191FBF0F081B20848C1810146C98922
:101910004810FFF70AFF0020BAE738B5044603482D
:10192000807A28B94FF0FF3038BD000098030020BE
:10193000022C06D0042C07D0082C08D0102C0CD177
:1019400008E0002000900BE00820009008E0102044
:10195000009005E01820009002E04FF0FF30E3E730
:1019600000BFF948407A9DF80010B0EBE10F01D1BB
:101970000020D9E7F44A1268D179F34A5268107806
:101980006B460122FFF77CFA10B14FF0FF30CBE736
:101990009DF80000C110EC4841720020C4E738B542
:1019A0000446E948807A10B94FF0FF3038BDFA2C70
:1019B00009D0B4F5FA7F09D0B4F57A7F09D0B4F52F
:1019C000FA6F0CD108E0002000900BE00820009096
:1019D00008E01020009005E01820009002E04FF091
:1019E000FF30E3E700BFD848007A9DF80010B0EB65
:1019F000E10F01D10020D9E7D34A12689179D24A88
:101A0000526810786B460122FFF73AFA10B14FF096
:101A1000FF30CBE79DF80000C010CB4908720020D2
:101A2000C4E71CB580208DF80000C74A1268917C7D
:101A3000C54A526810786B460122FFF721FA10B1AF
:101A40004FF0FF301CBD642002F0F5FF00208DF840
:101A50000000BD4A1268917CBB4A526810786B4600
:101A60000122FFF70DFA10B14FF0FF30EAE7B64A56
:101A70001268917DB44A526810786B460622FFF7CF
:101A80004AF910B14FF0FF30DCE79DF80500C007C0
:101A9000400F9DF8031001F0010140EA41009DF85C
:101AA000011001F0010140EA010494B1012C03D1BD
:101AB0000121A548C17431E0022C03D10021A248C4
:101AC000C1742BE02146A1A003F0DAFE4FF0FF30F5
:101AD000B8E79D4A1268D1789B4A526810786B46E5
:101AE0000122FFF718F910B14FF0FF30AAE79DF877
:101AF000000000F00F042CB99E4803F0C1FE4FF027
:101B0000FF309FE7042C06D19BA003F0B9FE012112
:101B10008D48C17402E000218B48C174FF218A48BE
:101B20008172FF2088490872FF2187484172C17283
:101B30004FF6FF71C181FF2101748174012101738E
:101B400080F82210002180F82310417501751630AD
:101B5000016041608160163880F8241080F82510FB
:101B6000C1844FF4FA60FFF71AFF10B14FF0FF3055
:101B700068E70220FFF7D1FE10B14FF0FF3061E7B8
:101B80002A20FFF7D2FD10B14FF0FF305AE7322084
:101B9000FFF777FE10B14FF0FF3053E70020FFF75B
:101BA0008FFD10B14FF0FF304CE70020FFF7F8FB3E
:101BB00010B14FF0FF3045E70020FFF78CFB00200D
:101BC00040E770477CB504460D465F48807A00F0D8
:101BD000700010B94FF0FF307CBD5B4A1268117B7A
:101BE000594A526810786B460622FFF794F810B1F4
:101BF0004FF0FF30F0E79DF801009DF8001040EA3B
:101C0000012000B220809DF803009DF8021040EAF8
:101C1000012000B260809DF805009DF8041040EAA4
:101C2000012000B2A08015B12846FFF7CAFF0020AE
:101C3000D2E77CB504460D464348807A00F00800A0
:101C400010B94FF0FF307CBD3F4A1268517B3E4ACD
:101C5000526810786B460622FFF75DF810B14FF01E
:101C6000FF30F0E79DF801009DF8001040EA0120E8
:101C700000B220809DF803009DF8021040EA012088
:101C800000B260809DF805009DF8041040EA012034
:101C900000B2A08015B12846FFF793FF0020D2E7DD
:101CA0002DE9FE4F05460C462748807A18B94FF0BB
:101CB000FF30BDE8FE8F244A1268917B224A5268A9
:101CC000107802AB0222FFF726F810B14FF0FF3078
:101CD000EFE79DF809009DF8081040EA012006B2E0
:101CE00014B12046FFF76DFF17494968C88805F011
:101CF000F7FB154901904968B1F9080005F0D8FBD8
:101D00008346304605F0D4FB5946009005F02EFD81
:101D10008246019905F09AFA81461F4905F028FA92
:101D200080464FF08F4105F023FC074605F084FB09
:101D300028600020BDE710B588B004461CB94FF0FC
:101D4000FF3008B010BD29E098030020556E737570
:101D500070706F7274656420736F667477617265FA
:101D60002070726F64756374207265762025642E0E
:101D70000A000000D08E000848616C662073656E12
:101D80007369746976697479207061727420666F02
:101D9000756E642E0A00000000000C42206830B905
:101DA000606820B9A06810B9002008B010BDFA49D9
:101DB0004968087806AB03221146FEF7ACFF10B164
:101DC0004FF0FF30F1E79DF81800082101EB2010DB
:101DD00000F00F00ADF800009DF8190001EB201095
:101DE00000F00F00ADF802009DF81A0001EB201082
:101DF00000F00F00ADF8040020684100BDF90000BC
:101E0000403091FBF0F000B2ADF810006068410086
:101E1000BDF90200403091FBF0F000B2ADF81200C5
:101E2000A0684100BDF90400403091FBF0F000B221
:101E3000ADF81400D8494968087806AB0622114667
:101E4000FEF769FF10B14FF0FF30AEE79DF81900C3
:101E50009DF8181040EA012000B2ADF808009DF886
:101E60001B009DF81A1040EA012000B2ADF80A00EC
:101E70009DF81D009DF81C1040EA012000B2ADF84D
:101E80000C00BDF81000BDF80810084400B2ADF811
:101E90001000BDF81200BDF80A10084400B2ADF8F9
:101EA0001200BDF81400BDF80C10084400B2ADF8E3
:101EB0001400BDF81000000A8DF81800BDF81000DD
:101EC000C0B28DF81900BDF81200000A8DF81A0092
:101ED000BDF81200C0B28DF81B00BDF81400000A56
:101EE0008DF81C00BDF81400C0B28DF81D00AA4981
:101EF0004968087806AB06221146FEF7C1FF10B10B
:101F00004FF0FF3051E700204FE70146A248007A2A
:101F100030B1012807D0022809D003280FD10AE0E8
:101F2000FA2008800EE04FF4FA7008800AE04FF4BF
:101F30007A70088006E04FF4FA60088002E0002022
:101F4000088000BF00BF0020704701469248407AD9
:101F500030B1012807D0022808D003280CD108E0AE
:101F6000022008700BE00420087008E008200870C8
:101F700005E01020087002E04FF0FF30704700BF0E
:101F80008548C07C18B108784006000E0870002013
:101F9000F4E701468048C07A082817D2DFE800F04D
:101FA0001704070A0D101318BC20088013E06220E4
:101FB000088010E02A2008800DE0142008800AE044
:101FC0000A20088007E00520088004E000BF00BF69
:101FD0000020088000BF00BF0020704701466E4807
:101FE00090F8240010B14FF0FF3070476A48C08964
:101FF00008800020F9E7014600200880401E704755
:1020000001464FF0FF30704701466348007A30B117
:10201000012807D0022808D003280CD108E05F4827
:1020200008600BE05E48086008E05E48086005E074
:102030005D48086002E04FF0FF30704700BF0020AD
:10204000FBE701465448407A30B1012808D0022805
:102050000AD0032810D10BE04FF4804008800EE036
:1020600041F69C7008800AE04FF48050088006E03A
:102070004FF40060088002E04FF0FF30704700BF6F
:102080004548C07C10B10888401008800020F5E762
:1020900001464148007C08700020704701463E48D8
:1020A000807A10B10120087001E000200870002043
:1020B000704738B504463848807A10B94FF0FF3081
:1020C00038BD354A1268117C334A526810786B4625
:1020D0000222FEF720FE10B14FF0FF30F0E79DF82E
:1020E00001009DF8001040EA012000B2208000208D
:1020F000E6E72DE9FE4F0746884692461D46DDF885
:1021000030B000260024244890F8240010B1601E4E
:10211000BDE8FE8F002028701F48807A10B94FF06C
:10212000FF30F5E71C48007C10B94FF0FF30EFE7B7
:102130001948007C00F0400008B1B01CC6B2164837
:10214000007C00F0200008B1B01CC6B21248007C30
:1021500000F0100008B1B01CC6B20F48007C00F0BF
:10216000080008B1B01DC6B20B4A1268917A0A4A3B
:10217000526810786B460222FEF7CDFD10B14FF089
:10218000FF30C5E79DF801009DF8001040EA0129E5
:10219000B1450BDA0020BBE79803002000000343A1
:1021A000000083423333034233338341FC484068A9
:1021B0004088B9EB600F17DDF94A1268517CF84A84
:1021C000526810786B460122FEF7A5FD10B14FF062
:1021D000FF309DE79DF8000000F0100020B1FFF7F0
:1021E00083F96FF0010093E75046FFF7EAFCEC4AF1
:1021F0001268D17AEA4A526810786B463246FEF786
:102200008AFD10B14FF0FF3082E799FBF6F0401ED7
:102210008BF8000000202870B4422AD0E048007CEF
:1022200000F0080028B3601C1DF800001DF8041021
:1022300040EA012000B2A8F80000E01C1DF80010E0
:10224000A01C1DF8000041EA002000B2A8F802001E
:10225000601D1DF80010201D1DF8000041EA00203F
:1022600000B2A8F80400287840F008002870A01DEB
:1022700084B2B44213D0CA48007C00F0400070B170
:10228000601C1DF800001DF8041040EA012000B297
:102290003880287840F040002870A01C84B2B442F6
:1022A00013D0BF48007C00F0200070B1601C1DF806
:1022B00000001DF8041040EA012000B27880287860
:1022C00040F020002870A01C84B2B44213D0B4485F
:1022D000007C00F0100070B1601C1DF800001DF8BB
:1022E000041040EA012000B2B880287840F01000C5
:1022F0002870A01C84B200200AE7F8B504460F46F7
:102300001646A74890F8240010B94FF0FF30F8BDEA
:10231000A348807A10B94FF0FF30F8E7A04A12685E
:10232000917A9F4A526810786B460222FEF7F3FCBE
:1023300010B14FF0FF30EAE79DF801009DF8001062
:1023400040EA0125A54203DA00203070401EDEE796
:10235000934840684088B5EB600F17DD904A1268DB
:10236000517C8F4A526810786B460122FEF7D3FCED
:1023700010B14FF0FF30CAE79DF8000000F01000E8
:1023800020B1FFF7B1F86FF00100C0E7E2B2844B73
:102390001B68D97A824B5B6818783B46FEF7BBFC1A
:1023A00010B14FF0FF30B2E795FBF4F0401E3070F3
:1023B0000020ACE701467A4880F8221000207047E0
:1023C0007CB5054676494968087801AB04220D21A1
:1023D000FEF7A1FC08B107207CBD9DF80700C0F303
:1023E00001109DF8041001F0E00140EAE1008DF8D1
:1023F00000009DF80700C0F381009DF8051001F072
:10240000E00140EAE1008DF801009DF8070000F0CE
:1024100003009DF8061001F0E00140EAE1008DF8AC
:10242000020000241CE01DF8040018B9002045F843
:10243000240013E05B4845F8240006E055F824002A
:10244000594905F095F845F824001DF80400401E90
:10245000C0B20DF804000028F0D100BF601CC4B267
:10246000032CE0DB0020B7E72DE9FE4F06460F46C0
:1024700000256846FFF7A4FF002442E056F8240038
:1024800057F82410A0EB010ABAF1000F01DB514606
:1024900001E0CAF10001084605F00AF883464FF052
:1024A0008F4104F0D3FE80465DF82400002104F043
:1024B0008FFF16D05DF82410404604F0C7FE824618
:1024C0004FF07E5105F052F9814629F0004A374815
:1024D000416A504605F018F912D20120A040054388
:1024E0000EE03248C169404605F00EF805D32F488A
:1024F000016A404605F008F902D20120A0400543D8
:10250000641C032CBADB2846BDE8FE8F2DE9FC5F76
:1025100006460F46002522494968087801AB032288
:102520000D21FEF7F8FB10B10720BDE8FC9F9DF8D8
:10253000040000F01F008DF804009DF8050000F075
:102540001F008DF805009DF8060000F01F008DF8B3
:102550000600002462E056F8240057F82410A0EB8F
:10256000010BBBF1000F01DB594601E0CBF100018B
:10257000084604F09DFF4FF08F41009004F066FE86
:10258000814601A8005DC0B30849086804F0A8FFAF
:1025900083465946064804F059FE80460FE0000085
:1025A000980300207B14AE3E1D5A843F88810008AA
:1025B00000B04C45FE49404604F0DAFF804601A8D1
:1025C000005D401EC0B201A908550028F2D1414665
:1025D000484604F03BFE83464FF07E5105F0C6F8B6
:1025E00082462AF0004BF3488169584605F08CF882
:1025F00013D20120A04005430FE0FFE7ED48016939
:10260000484604F081FF05D3EA484169484605F091
:102610007BF802D20120A0400543641C032C9ADB06
:10262000284682E72DE9F04F87B005460C469146D3
:1026300001208DF8100000208DF81100DE4A12688C
:10264000917CDD4A5268107804AB0222FEF718FC38
:1026500020B14FF0FF3007B0BDE8F08FC82002F086
:10266000EAF900208DF81000D34A1268D17BD24AD3
:102670005268107804AB0122FEF702FC10B14FF053
:10268000FF30E8E7CC4A12685179CB4A526810789B
:1026900004AB0122FEF7F4FB10B14FF0FF30DAE794
:1026A000C54A1268917CC44A5268107804AB012272
:1026B000FEF7E6FB10B14FF0FF30CCE7BE4A1268E0
:1026C000D17DBD4A5268107804AB0122FEF7D8FBD9
:1026D00010B14FF0FF30BEE7B74A12681179B64A21
:1026E0005268107804AB0122FEF7CAFB10B14FF01C
:1026F000FF30B0E70C208DF81000AF4A1268117956
:10270000AD4A5268107804AB0122FEF7B9FB10B154
:102710004FF0FF309FE70F2002F08DF9A648806A46
:10272000407A8DF81000A44A12689178A24A526843
:10273000107804AB0122FEF7A3FB10B14FF0FF307D
:1027400089E79D48806A007A8DF810009A4A1268DD
:102750005178994A5268107804AB0122FEF790FB39
:1027600010B14FF0FF3076E7B9F1000F07D0924873
:10277000806A807A40F0E0008DF8100004E08E4816
:10278000806A807A8DF810008B4A126891798A4AA3
:102790005268107804AB0122FEF772FB10B14FF0C3
:1027A000FF3058E7B9F1000F07D08348806AC07A3C
:1027B00040F0E0008DF8100003E07E48C07A8DF80C
:1027C00010007D4A1268D1797B4A5268107804ABB8
:1027D0000122FEF755FB10B14FF0FF303BE7B9F196
:1027E000000F02D0C82002F026F940208DF810001A
:1027F000714A12681179704A5268107804AB01224C
:10280000FEF73EFB10B14FF0FF3024E778208DF843
:102810001000694A12685179674A5268107804AB0F
:102820000122FEF72DFB10B14FF0FF3013E7614995
:10283000888902F000F900208DF810005E4A1268C5
:1028400051795D4A5268107804AB0122FEF718FBFB
:1028500010B14FF0FF30FEE6574A1268917A564A9F
:102860005268107804AB0222FEF755FA10B14FF00F
:10287000FF30F0E69DF811009DF8101040EA012BA2
:102880000C209BFBF0F0C6B20020A86068602860B6
:10289000A06060602060824665E0474A1268D17A95
:1028A000454A5268107804AB0C22FEF734FA10B196
:1028B0004FF0FF30CFE69DF811009DF8101040EA70
:1028C000012000B2ADF808009DF813009DF8121029
:1028D00040EA012000B2ADF80A009DF815009DF80D
:1028E000141040EA012000B2ADF80C00BDF9081048
:1028F000206808442060BDF90A10606808446060E0
:10290000BDF90C10A0680844A0609DF817009DF860
:10291000161040EA012000B2ADF800009DF8190041
:102920009DF8181040EA012000B2ADF802009DF8B1
:102930001B009DF81A1040EA012000B2ADF8040017
:10294000BDF90010286808442860BDF902106868C5
:1029500008446860BDF90410A8680844A8600AF13A
:10296000010000F0FF0AB24597DB1248D0F800C022
:102970002868C117090441EA104107046246002390
:10298000384602F058FF32460023CDE9020102F03A
:1029900052FF28600748D0F800C06868C1170904D2
:1029A00041EA1041070462460023384606E0000071
:1029B00054E3853F888100089803002002F03BFF24
:1029C00032460023CDE9020102F035FF6860FE487F
:1029D000D0F800C0A868C117090441EA10410704F3
:1029E00062460023384602F026FF32460023CDE936
:1029F000020102F020FFA860F348D0F804C021686B
:102A0000C817000440EA11480F0462460023384604
:102A1000414602F010FF32460023CDE9020102F0E8
:102A20000AFF2060E848D0F804C06068C1170904B4
:102A300041EA1041070462460023384602F0FBFEDB
:102A400032460023CDE9020102F0F5FE6060DE4867
:102A5000D0F804C0A068C117090441EA1041070476
:102A600062460023384602F0E6FE32460023CDE9F6
:102A7000020102F0E0FEA060A068002804DDA0686A
:102A8000A0F58030A06003E0A06800F58030A06071
:102A90000020E0E538B50446CC4890F82400A04278
:102AA00001D1002038BD24B3C84890F8250010B9E2
:102AB0004FF0FF30F6E70020FEF74AFB0020FEF75C
:102AC0006FFCC249C88CFEF7DCFE00200090BF49B5
:102AD000496808786B4601222321FEF7D1F90121CC
:102AE000BA4880F824100120FEF732FBFEF7FCFC08
:102AF00013E00020FEF72CFBB448007C0090B349A3
:102B0000496808786B4601222321FEF7B9F90021B4
:102B1000AE4880F82410FEF7E7FC0020C2E72DE95C
:102B2000F04F8DB083460F4602200C90A74890F8D6
:102B3000240020B10020FFF7ADFF012600E00026B1
:102B400003A8FFF7E2F905A8FFF7FFF901A8FFF7CF
:102B500020FA02A8FFF742FA9C4890F80AA004A8BD
:102B6000FFF796FA002407E0002239465846FFF79F
:102B700059FD00B902E0641C022CF5DB00BF022CF9
:102B800001D1002528E0002407E0012206A909A8B8
:102B9000FFF748FD00B902E0641C022CF5DB00BF22
:102BA000022C01D1002517E006A93846FFF75CFC8E
:102BB00000F0FF0809A95846FFF7A8FC00F0FF093C
:102BC0000025B9F1000F01D145F00105B8F1000F62
:102BD00001D145F0020500BFFF207C490872FF21AA
:102BE0007A484172C1724FF6FF71C181FF21817233
:102BF000017401210173BDF80C00FEF7D0FE9DF8B1
:102C00001400FEF78AFEBDF80400FEF78EFDBDF845
:102C10000800FEF736FE5046FEF75DFB9DF81000FB
:102C2000FEF74EFD16B10120FFF734FF28460DB028
:102C3000BDE8F08FF8B504460D46164616B94FF0BC
:102C4000FF30F8BD6148807A10B94FF0FF30F8E7E7
:102C500020128DF80000E0B28DF801009DF801000F
:102C600028445A4949684989884202DD4FF0FF30BB
:102C7000E7E7564A1268117E544A526810786B464C
:102C80000222FEF7FDF810B14FF0FF30D9E7EAB2AB
:102C90004E4B1B68597D4D4B5B6818783346FEF7E9
:102CA000EFF810B14FF0FF30CBE70020C9E7F8B5DF
:102CB00004460D46164616B94FF0FF30F8BD43489E
:102CC000807A10B94FF0FF30F8E720128DF800003D
:102CD000E0B28DF801009DF8010028443B494968A5
:102CE0004989884202DD4FF0FF30E7E7374A126832
:102CF000117E364A526810786B460222FEF7C0F801
:102D000010B14FF0FF30D9E7EAB2304B1B68597D64
:102D10002E4B5B6818783346FDF7FDFF10B14FF07E
:102D2000FF30CBE70020C9E72DE9F04385B0054629
:102D30000E4690469946254890F8250020B14FF060
:102D4000FF3005B0BDE8F08316B94FF0FF30F8E76B
:102D5000002423E0281B102801DD102000E0281BA0
:102D600087B2321939462046FFF764FF10B14FF0A1
:102D7000FF30E6E701AA39462046FFF798FF10B179
:102D80004FF0FF30DDE730193A4601A902F0B0FEFE
:102D900010B16FF00100D4E7E01984B2AC42D9DB86
:102DA0004FEA28208DF8000008F0FF008DF80100A0
:102DB000064A1268917E054A526810786B460222D4
:102DC000FEF75EF838B103E0888100089803002020
:102DD0004FF0FF30B5E70121F64880F82510A0F844
:102DE00026900020ADE70146F24890F824000870D4
:102DF000002070474FF0FF30704702464FF0FF3021
:102E0000704701464FF0FF307047F8B505460F4652
:102E10001446002C70D0B5F5FF5F01DDFF2605E0FC
:102E2000202D01DA012601E0C5F3471607B9012775
:102E3000282C02DD4FF0FF30F8BDDE48407D28BB76
:102E4000DC4890F8240038B10020FFF723FE012170
:102E5000D84880F8201003E00021D64880F82010E0
:102E6000D4481630FFF751F8D2481830FFF76DF804
:102E7000D0481A30FFF78DF8CE481C30FFF7AEF877
:102E8000CC48817A81771F30FFF702F90020FEF7E6
:102E90005FF90020FEF788FC00208DF80000C54A8D
:102EA00012689178C34A526810786B460122FDF788
:102EB000E7FF10B14FF0FF30BEE740208DF8000073
:102EC000BC4A1268D17BBB4A526810786B4601221B
:102ED000FDF7D6FF00B165E08DF800608DF8017058
:102EE000B44A1268117AB34A526810786B460222CB
:102EF000FDF7C6FF08B155E047E0052001F09BFD56
:102F0000AC48407A072101EBC000C0B28DF8000048
:102F1000A84A1268D179A74A526810786B460122F4
:102F2000FDF7AEFF00B13DE020208DF80000012C40
:102F300003D100208DF801000EE0052C03DC0120F8
:102F40008DF8010008E0142C03DC02208DF801004C
:102F500002E003208DF801009DF80100072101EB3C
:102F60008010C0B28DF80100924A1268917C914A9B
:102F7000526810786B460222FDF782FF00B111E023
:102F800001218C484175002056E78A4A16320021FB
:102F900003E0505C00B105E0491C0C29F9D34FF067
:102FA000FF3049E7FF2083490872FF2181484172C1
:102FB000C1724FF6FF71C181FF218172017401213D
:102FC00001730146887FFEF786F97A49C88AFEF7C1
:102FD000E6FC7849087EFEF7A0FC7649488BFEF7B0
:102FE000A4FB7449888BFEF74CFC7249C87FFEF73E
:102FF00067FB704890F8200010B10120FFF74AFDF0
:1030000000216C484175002016E770B588B002A910
:1030100005A8FFF784FD0446032C3ED101A8FEF766
:10302000F3FF059804F044FA0646019904F0A0FA6B
:10303000054604F001FA0590069804F039FA0646B0
:10304000019904F095FA054604F0F6F90690079800
:1030500004F02EFA0646019904F08AFA054604F0B7
:10306000EBF9079005A800F0CEFA6846FEF7E9FFF5
:10307000BDF80010029848430290BDF80010039874
:1030800048430390BDF8001004984843049002A8F8
:1030900000F04CFB002008B070BD0120FBE70146AA
:1030A00091F90020002A01DD00201EE091F90020A6
:1030B000002A01DA042018E091F90120002A01DD3C
:1030C000012012E091F90120002A01DA05200CE02C
:1030D00091F90220002A01DD022006E091F9022088
:1030E000002A01DA062000E00720704710B50446E8
:1030F0002046FFF7D4FF0346E01CFFF7D0FF43EA6A
:10310000C00083B2A01DFFF7CAFF43EA801083B25C
:10311000184610BD70B50024FDF7EFFEC82001F081
:103120008AFCFEF77EFC002840D17820FEF7D3F819
:10313000C4B20CB1012070BD7820FEF7C1FAC4B250
:103140000CB10220F7E77820FEF79BFBC4B20CB16C
:103150000320F0E700F0BCF9C4B20CB10420EAE7A8
:103160001548FFF7C3FF054600F0BCF9C4B20CB127
:103170000520E0E740F2731000F0F5FDC4B20CB199
:103180000620D8E7782000F067FBC4B20CB1072016
:10319000D1E7FFF73AFF04460CB10820CBE7012046
:1031A000FFF778FCC4B21CB10920C4E70A20C2E7CB
:1031B0000020C0E798030020C40300202DE9F04F51
:1031C0009FB004460D4616464FF07E574FF000085C
:1031D0004FF000094FF0000A18A819A91EAB14AA55
:1031E000CDE900101AA91CA800F01CFF18B101209D
:1031F0001FB0BDE8F08FBDF8640000F480700028B7
:103200007DD0149804F054F983464FF09D4104F0AA
:103210001DF80746159804F04BF983464FF09D4181
:1032200004F014F88046169804F042F983464FF0F3
:103230009D4104F00BF88146179804F039F9834654
:103240004FF09D4104F002F8824649464FF080401D
:1032500004F08EF94946089004F08AF941460A9034
:103260004FF0404004F084F94146089004F080F9A2
:1032700009900A9904F07AFA4FF07E510B9003F00E
:1032800077FF834603F048FFCDE90E0139464FF042
:10329000804004F06DF94146099004F069F98346D5
:1032A00049464FF0804004F063F95146099004F01C
:1032B0005FF959460A9003F05BFF0B9003F02CFF77
:1032C000CDE90C01DDE90E2303F09EF84FF06632E4
:1032D0007C4BCDE9100103F045FCCDE9120103F070
:1032E00079F928605146504604F042F949460B905E
:1032F000484604F03DF941460990404600E0DCE0D4
:1033000004F036F939460790384604F031F9069052
:10331000079903F02DFF0890099904F027FA0A9005
:103320000B9904F023FA834603F0F6FECDE90E0173
:103330005146384604F01CF949460A90404604F0CC
:1033400017F909900A9903F013FF83464FF0804163
:1033500004F00EF90B9003F0DFFECDE90C01DDE97E
:103360000E2303F051F84FF06632564BCDE91001B1
:1033700003F0F8FBCDE9120103F02CF93060286866
:1033800020F0004B584603F0C7FE00224E4BCDE91B
:10339000120103F0ABFB2AD239464FF0804004F013
:1033A000E7F849460B9004F0E3F841460D904FF0E2
:1033B000404004F0DDF851460B9004F0D9F80C9031
:1033C0000D9903F0D5FE834603F0A6FECDE90E016C
:1033D00002F0D2FD4FF066323A4BCDE9100103F016
:1033E000C1FBCDE9120103F0F5F8206067E0394632
:1033F0004FF0804004F0BCF84946019004F0B8F862
:10340000414602904FF0404004F0B2F8514601901E
:1034100004F0AEF88346029903F0AAFE039003F08D
:103420007BFECDE9040102F0A7FD4FF06632254B8B
:10343000CDE9060103F096FBCDE9080103F0CAF8D7
:1034400020F000400B9003F067FE00221F4BCDE9F7
:103450000C0103F085FCCDE910015146404604F013
:1034600087F849460B90384604F082F80A900B9989
:1034700004F07CF951460D90404604F079F8494635
:103480000B90384604F074F80A900B9904F06EF92A
:1034900020F000400C900D9903F0D8FE834603F015
:1034A0003BFECDE90E01DDE9102303F05BFBCDE926
:1034B000120103F08FF8206001E0022098E600205E
:1034C00096E6000066A64C400080564000806640AC
:1034D00010B5C8234FF48062F74940F6F630FFF785
:1034E00023FC10BD10B586B00446F4A0006803901C
:1034F000F3A000680290F3A000680190F2A00068B9
:10350000009004F0030003A9085C8DF8140003A8E0
:10351000C4F3C101405C8DF8150003A8C4F3811108
:10352000405C8DF8160004F0030002A9085C8DF8D9
:10353000100002A8C4F3C101405C8DF8110002A87C
:10354000C4F38111405C8DF8120005AA032140F2FA
:103550002640FFF76FFB18B14FF0FF3006B010BDEB
:1035600004AA032140F22A40FFF764FB10B14FF098
:10357000FF30F3E7019805900098049004F00400F0
:1035800058B19DF8140040F001008DF814009DF82A
:10359000100040F001008DF8100004F0200058B138
:1035A0009DF8150040F001008DF815009DF8110000
:1035B00040F001008DF8110004F4807058B19DF8BE
:1035C000160040F001008DF816009DF8120040F042
:1035D00001008DF8120005AA03214FF48860FFF75F
:1035E00029FB10B14FF0FF30B8E704AA032140F2E5
:1035F0003140FFF71FFB10B14FF0FF30AEE7B3488B
:1036000004810020AAE71FB50446B048007A00F004
:10361000030054F820000190AC48007A00F0040048
:1036200010B1019840420190A848007AC0F3C1004F
:1036300054F820000290A548007A00F0200010B154
:10364000029840420290A148007AC0F3811054F8D9
:10365000200003909D48008900F4807010B1039809
:10366000404203909A49019880FB0101800F40EA93
:10367000810001909649029880FB0110820042EA85
:10368000917002909249039880FB0110820042EAF7
:10369000917003900198000E8DF800000198000CC5
:1036A0008DF801000198000A8DF802000198C0B25F
:1036B0008DF803006A4604214FF47470FFF7BAFADC
:1036C00018B14FF0FF3004B010BD0298000E8DF815
:1036D00000000298000C8DF801000298000A8DF895
:1036E00002000298C0B28DF803006A4604214FF42C
:1036F0007570FFF79FFA10B14FF0FF30E3E70398C2
:10370000000E8DF800000398000C8DF8010003985E
:10371000000A8DF802000398C0B28DF803006A46D3
:1037200004214FF47670FFF785FACCE770B588B0C6
:10373000064601A8FEF785FCBDF804000021C90378
:1037400041EA5045C4036148007A00F0030056F88E
:10375000200005905D48007A00F0040010B1059843
:10376000404205905948007AC0F3C10056F8200045
:1037700006905648007A00F0200010B106984042AA
:1037800006905248007AC0F3811056F82000079046
:103790004E48008900F4807010B1079840420790AD
:1037A0000598C117A0FB042301FB043100FB0510A1
:1037B000810041EA927005900698C117A0FB04238E
:1037C00001FB043100FB0510810041EA9270069074
:1037D0000798C117A0FB042301FB043100FB05106F
:1037E000810041EA927007900598000E8DF808005C
:1037F0000598000C8DF809000598000A8DF80A005C
:103800000598C0B28DF80B000698000E8DF80C00DC
:103810000698000C8DF80D000698000A8DF80E0031
:103820000698C0B28DF80F000798000E8DF81000B2
:103830000798000C8DF811000798000A8DF8120007
:103840000798C0B28DF8130002AA0C214FF425701E
:10385000FFF7F0F908B070BD30B585B004461DA281
:1038600007CA02AB07C3C82C03DD4FF0FF3005B019
:1038700030BDC82090FBF4F0401E85B2280A8DF8B8
:103880000000E8B28DF801006A46022140F21620DD
:10389000FFF7D0F910B14FF0FF30E8E702AA0C2192
:1038A00040F6C120FFF7C6F910B14FF0FF30DEE758
:1038B000064884810020DAE7B08100084CCD6C0016
:1038C0000CC92C0036567600264666000C040020F3
:1038D00009E3CA02FEF2ABC4AAF1DFDFBBAFDFDF50
:1038E0000146FC4880890880002070472DE9FC478C
:1038F00006460F4606F0070010B1B7F5C86F03DDA6
:103900004FF0FF30BDE8FC87384603F0E9FD814603
:10391000F14903F09BFC80466846FEF716FB9DF8D4
:103920000000022806D0042816D0082826D0102827
:1039300048D135E04FF08D41404603F019FE8146F5
:1039400003F096FD84B2E549404603F011FE81463E
:1039500003F08EFD85B238E04FF08C41404603F015
:1039600007FE814603F084FD84B2DD49404603F042
:10397000FFFD814603F07CFD85B226E04FF08B41D0
:10398000404603F0F5FD814603F072FD84B2D5494F
:10399000404603F0EDFD814603F06AFD85B214E078
:1039A0004FF08A41404603F0E3FD814603F060FD9D
:1039B00084B2CD49404603F0DBFD814603F058FD5B
:1039C00085B202E04FF0FF309CE700BF20128DF877
:1039D0000400E0B28DF8050028128DF80600E8B268
:1039E0008DF8070006F00100A0B101AA02214FF4F2
:1039F000EA70FFF71FF910B14FF0FF3082E70DF1C9
:103A0000060202214FF49270FFF714F910B14FF043
:103A1000FF3077E706F00200A0B101AA02214FF4BF
:103A2000EC70FFF707F910B14FF0FF306AE70DF1C6
:103A3000060202214FF49470FFF7FCF810B14FF02A
:103A4000FF305FE706F00400A0B101AA02214FF4A5
:103A5000EE70FFF7EFF810B14FF0FF3052E70DF1C5
:103A6000060202214FF49670FFF7E4F810B14FF010
:103A7000FF3047E7002045E738B5044600200090B6
:103A800004F0010020B19DF8000040F030000090EB
:103A900004F0020020B19DF8000040F00C000090FE
:103AA00004F0040020B19DF8000040F003000090F5
:103AB0006A4601214FF4A470FFF7BCF838BD38B551
:103AC0000446012C01DA012402E0042C00DD042468
:103AD000601EC0B200906A46012140F24F10FFF70D
:103AE000A9F838BD38B50446052094FBF0F085B23E
:103AF00028128DF80000E8B28DF801006A46022114
:103B00004FF4EF70FFF796F838BD38B5044605203E
:103B100094FBF0F085B228128DF80000E8B28DF821
:103B200001006A4602214FF4ED70FFF783F838BDBB
:103B3000F8B505460E464FF47A7095FBF0F000FBA1
:103B400006F4200E8DF80000200C8DF80100200AEC
:103B50008DF80200E0B28DF803006A4604214FF4AC
:103B6000AE70FFF767F8F8BD38B50446052094FB42
:103B7000F0F084B220128DF80000E0B28DF8010060
:103B80006A4602214FF4AD70FFF754F838BD38B5DE
:103B90000446052094FBF0F084B220128DF800005A
:103BA000E0B28DF801006A4602214FF4AC70FFF7D5
:103BB00041F838BD38B5044614B94FF0FF3038BD70
:103BC0006A4604214FF45870FFF771F810B14FF0B6
:103BD000FF30F4E79DF8000000069DF8011040EA70
:103BE00001409DF8021040EA01209DF803100843AF
:103BF00020600020E3E738B50446200E8DF8000071
:103C0000200C8DF80100200A8DF80200E0B28DF83A
:103C100003006A4604214FF45870FFF70BF838BDD3
:103C200038B5044614B94FF0FF3038BD6A46042158
:103C30004FF47170FFF73BF810B14FF0FF30F4E72D
:103C40009DF8000000069DF8011040EA01409DF833
:103C5000021040EA01209DF80310084300EB8000A9
:103C6000800020600020E0E738B504461420B4FB53
:103C7000F0F4200E8DF80000200C8DF80100200AD1
:103C80008DF80200E0B28DF803006A4604214FF47B
:103C90007170FEF7CFFF38BD38B5044664B12020FF
:103CA0008DF8000028208DF8010030208DF80200EA
:103CB00038208DF8030004E0A3220421684601F0B7
:103CC00043FF6A46042140F69E20FEF7B3FFFDF74E
:103CD0000BFC38BD0C0400200000484300004046A7
:103CE0000000C045000040450000C04438B504460F
:103CF00064B1C0208DF80000C2208DF80100C420FE
:103D00008DF80200C6208DF8030004E08B22042108
:103D1000684601F019FF6A46042140F69820FEF734
:103D200089FFFDF7E1FB38BD3EB504466CB1FDA14E
:103D3000D1E900208968CDE9002002916A46092175
:103D40004FF49760FEF776FF3EBDF9A2D2E900106E
:103D50009268CDE9010200916A4609214FF497600B
:103D6000FEF768FFF0E73EB5044602208DF800003C
:103D7000CA208DF80100E3208DF8020009208DF89B
:103D800003006A4604216820FEF754FFA3208DF843
:103D9000000004F0400048B1C0208DF80100C820A8
:103DA0008DF80200C2208DF8030006E0A3208DF8F4
:103DB00001008DF802008DF8030004F4C07048B1D2
:103DC000C4208DF80400CC208DF80500C6208DF8A5
:103DD000060006E0A3208DF804008DF805008DF89C
:103DE0000600A3208DF807008DF808008DF8090063
:103DF0006A460A2140F6A720FEF71CFF04F00300E4
:103E000018B120208DF8000002E0D8208DF80000C5
:103E10006A46012140F6B620FEF70CFF04F02000B0
:103E200018B10120FFF780FF02E00020FFF77CFFC0
:103E300004F4C07008B304F4807060B1B2208DF84F
:103E400000008B208DF80100B6208DF802009B2029
:103E50008DF803000BE0B0208DF8000080208DF875
:103E60000100B4208DF8020090208DF803006A460E
:103E7000042140F6A220FEF7DDFE04F0010020B38D
:103E8000F8208DF800006A4601214FF40B60FEF720
:103E9000D1FEFA210720FFF729FD0720FFF7ECFDEF
:103EA0000120FFF70CFE6420FFF71CFE4FF4FA70B0
:103EB000FFF72BFEC821A148FFF73AFE2820FFF7A5
:103EC00053FE0A20FFF763FE08E0D8208DF80000BB
:103ED0006A4601214FF40B60FEF7ACFE04F00200CD
:103EE00018B1D9208DF8000002E0D8208DF800002C
:103EF0006A46012140F23D70FEF79CFE04F004008A
:103F000018B10120FFF7F2FE02E00020FFF7EEFEFD
:103F100004F0100018B10120FFF7BEFE02E00020FF
:103F2000FFF7BAFE44F0080085494881FDF7DCFA46
:103F300000208349887304F0400018B10846807B54
:103F4000801D887304F4C07020B17D48807B801D83
:103F50007B49887304F0140020B17948807B1030CD
:103F60007749887304F0030020B17548807B001DF9
:103F70007349887300203EBD01467148408908801E
:103F8000002070472DE9F0410446E07800F0C006BB
:103F9000E07800F03F05607800F0010098B1EF1084
:103FA0002846E91705EB5171C910A5EBC101491C61
:103FB00001F0FF086248006820B16148414602688C
:103FC0003846904700BF607800F0080030B15C4888
:103FD000406818B1B0115A4A516888470020BDE8BE
:103FE000F08110B586B0044656A207CA03AB07C3DA
:103FF00057A207CA8DE80700012C09D0022C0ED168
:1040000003AA0B2140F68220FEF714FE06B010BD75
:104010006A460B2140F68220FEF70CFEF6E74FF0D1
:10402000FF30F3E72DE9F04F8DB00746884615467F
:104030009946DDE9166B0024002030804049887BDA
:104040005A4605A9FEF759F918B1601E0DB0BDE832
:10405000F08F3B48807A00F01400002861D09DF872
:10406000140000069DF8151040EA01409DF8161056
:1040700040EA01209DF81710084328609DF81800B9
:1040800000069DF8191040EA01409DF81A1040EA18
:1040900001209DF81B10084368609DF81C00000675
:1040A0009DF81D1040EA01409DF81E1040EA0120D5
:1040B0009DF81F100843A8609DF8200000069DF899
:1040C000211040EA01409DF8221040EA01209DF8AD
:1040D00023100843E86004F11000C4B228680014FB
:1040E0000190686800140290A86800140390E868C2
:1040F0000014049001984043029901FB01000399C8
:1041000001FB0100049901FB010ABAF1706F02DBA7
:10411000BAF1885F22DDFDF7E7F900203080401E0C
:1041200094E721E0B8AAB38DB4980D355D00000086
:10413000B8AAAAAAB088C3C5C700000009E3CA028A
:104140000C040020D8B1B9F38BA391B609B4D900FF
:10415000DAB1B9F38BA391B6DAB4DA00B6F900009C
:1041600040F48070308000BF3448807A00F0400016
:1041700020B305A9601C085C095D40EA012000B27B
:10418000A8F8000005A9E01C095C05AAA01C105CA9
:1041900041EA002000B2A8F8020005A9601D095CF0
:1041A000201D105C41EA002000B2A8F80400A01D08
:1041B000C4B2B6F9000040F0080030801F484089C2
:1041C00000F4C07008B305A9601C085C095D40EAF2
:1041D000012000B2388005A9E01C095C05AAA01CDA
:1041E000105C41EA002000B2788005A9601D095CDE
:1041F000201D105C41EA002000B2B880A01DC4B2AE
:10420000B6F9000040F0700030800C48807A00F071
:10421000030018B105A90819FFF7B4FE4846FDF7D9
:10422000D0FC002012E701460448016000207047DE
:104230000146024841600020704700000C04002045
:1042400038B9FE4A126822F007020A44FB4B1A6092
:1042500007E0FA4A126822F038020A44D200F74B0B
:104260001A60704710B507241BE021460020FFF7B5
:10427000E7FF0A2000F0DFFBFCF70DFD642000F0F3
:10428000DAFB05E0322000F0D6FBEDA000F0AAFC3E
:10429000FEF740FF0028F5D1EDA000F0A3FC601C64
:1042A000C4B2082CE1DB00210846FFF7C9FF10BDAE
:1042B00008B50121042001F055F83F20ADF80000B9
:1042C00010208DF8030003208DF802006946DB48BA
:1042D0000C3800F08BFD3F21D8480C3800F035FE3B
:1042E00008BD2DE9F04707460D4616469946384663
:1042F00003F0A2F804B2DAA000F074FC002C05DA96
:10430000D9A000F06FFC604204B202E0D7A000F038
:1043100069FC0A2094FBF0F0303000F0FF084046C2
:1043200000F052FC284603F087F804B2D0A000F059
:1043300059FC002C05DACCA000F054FC604204B219
:1043400002E0CAA000F04EFC0A2094FBF0F03030EE
:1043500000F0FF08404600F037FC304603F06CF8F0
:1043600004B2C5A000F03EFC002C05DABEA000F0AF
:1043700039FC604204B202E0BCA000F033FC0A2029
:1043800094FBF0F0303000F0FF08404600F01CFCD9
:10439000BDE8F08770B5049C7BB904EB4405B84ECA
:1043A00046F8250004EB440506EB8505696004EB3F
:1043B000440506EB8505AA600EE004EB4405B14E0A
:1043C00046F8250004EB440506EB8505696004EB1F
:1043D000440506EB8505AA6070BD2DE9F04F8BB052
:1043E000A848406880F00046A749304602F02EFFFA
:1043F0000546A44A5169906803F0B8F90746294672
:1044000003F0B6F8044602F087FECDE904019D49A9
:1044100048689D4902F01AFF019002F07DFE0646B1
:1044200000229A4B02F008F904460D46954AD168DD
:10443000106803F09BF9064602F06EFE82462246A3
:104440002B4602F08FFBCDE90201DDE9042302F0E7
:1044500079FD80468E4A8F4B02F084FB00228E4B02
:10446000CDE9060102F07CFCCDE9080102F0F8FA82
:1044700000B28A498880834A1169506803F076F94E
:10448000824602F049FE8046854A864B02F06AFB6E
:1044900006460022804B02F0CFF8044602F0E0FA14
:1044A00000B27E49C8807748806980F0004676492E
:1044B000304602F0CBFE0546714AD16C714AD06994
:1044C00003F054F90746294603F052F8044602F077
:1044D00023FECDE904016B4988696B4902F0B6FE01
:1044E000019002F019FE06460022684B02F0A4F883
:1044F00004460D46624A116D624A106A03F036F9AD
:10450000064602F009FE804622462B4602F02AFBB0
:10451000CDE90201DDE9042302F08EF8604A614B27
:10452000CDE9060102F01EFB00225F4BCDE9080138
:1045300002F082F8824602F093FA00B257494881AD
:104540005048006A80F0004A4F49504602F07EFE13
:1045500081464B4AD16C4B4AD06903F007F9834638
:10456000494603F005F8804602F0D6FD04460D46A4
:104570004449086A444902F069FE019002F0CCFD0A
:104580000022424BCDE9020102F0EAFB82468B4653
:104590003B4A916C3B4A906903F0E8F8039002F0C3
:1045A000BBFD804652465B4602F0DCFA06462246D8
:1045B0002B4602F041F83D4A3D4BCDE9040102F0A3
:1045C000D1FA00223B4BCDE9060102F0C9FBCDE94F
:1045D000080102F045FA00B2304988810BB0BDE80D
:1045E000F08F70B5344C2646442004F8010B31207E
:1045F00004F8010B202004F8010B4C2004F8010BF7
:10460000202004F8010B002575E02C4830F9150036
:104610004FF47A7190FBF1F0303004F8010B274829
:1046200030F9150090FBF1F201FB1200642190FBC0
:10463000F1F0303004F8010B204841E00C08014053
:1046400036303530206572726F720D0A000000003E
:10465000363035304C2020206F6B2020200D0A0092
:104660000D0A703A000000002D000000200000003C
:1046700020202020723A000020202020793A0000DB
:1046800078050020CC0500200000B4420000F03F77
:10469000C3F5285C8FC201400070974034040020AD
:1046A000B81E85EB5138264000407F409A99999971
:1046B00099991D4000909A404C0400201C04002051
:1046C00030F9150090FBF1F201FB12000A2190FB7A
:1046D000F1F0303004F8010B4C4830F9150090FB34
:1046E000F1F201FB1200303004F8010B202004F835
:1046F000010B681CC5B20C2D87DB522004F8010B9E
:10470000202004F8010B002532E0414830F9150063
:104710004FF47A7190FBF1F0303004F8010B3C4813
:1047200030F9150090FBF1F201FB1200642190FBBF
:10473000F1F0303004F8010B354830F9150090FBEA
:10474000F1F201FB12000A2190FBF1F0303004F885
:10475000010B2F4830F9150090FBF1F201FB12001C
:10476000303004F8010B202004F8010B681CC5B29E
:104770000C2DCADB352004F8010B302004F8010BA6
:104780006D2004F8010B732004F8010B0D2004F8D0
:10479000010B0A2004F8010B03E016F8010B00F0EE
:1047A00013FAA642F9D370BD38B5072426E0214696
:1047B0000020FFF745FD052000F03DF900BF154A38
:1047C00015491648FEF7FAFC0028F8D1144A154995
:1047D0001548FCF72DFB154A15491648FCF700FB58
:1047E000601EC0B2002300900A4802680A480168AF
:1047F0000A480068FFF7CEFD601CC4B2082CD6DB67
:1048000000210846FFF71CFD38BD00001C040020F5
:1048100034040020D8030020D4030020D00300205B
:10482000E0030020DE030020DC030020E60300207C
:10483000E4030020E203002010B586B00446012105
:10484000082000F08FFD0121880400F098FD4FF44E
:104850008060ADF8140003208DF8160018208DF844
:10486000170005A9504800F0C1FA4FF40060ADF8F8
:10487000140004208DF8170005A94B4800F0B6FA83
:1048800027208DF8000003208DF8010002208DF80C
:10489000020001208DF80300684600F0DEF9019463
:1048A0000020ADF80800ADF80A00ADF80C00ADF836
:1048B00010000C20ADF80E0001A93C4800F0F9FDF5
:1048C000012240F22551394800F08BFE0121374882
:1048D00000F07BFE06B010BD10B540F22551334804
:1048E00000F064FF002845D0304800F0DFFEC4B27D
:1048F0002F48008800F4004000283BD12C48008855
:1049000000F4804060B10A2C03D0002028490880C0
:1049100030E02748008840F400402549088029E01D
:104920000D2C15D122480088801C2249088022487D
:104930001F49098844540A2102461D480088401C2A
:1049400011541B48008840F480401949088011E048
:1049500017480088C0F30D0017490C54144800880C
:10496000401C1349088008460088B0F5005F01DB51
:104970000020088010BD10B5044621460B4800F009
:1049800091FE00BF4021094800F0FAFE0028F9D04E
:1049900010BD10B5044603E02078FFF7ECFF641C5F
:1049A00020780028F8D110BD000C014000480040DC
:1049B000E8030020EA0300202006002010B56FF075
:1049C000040000F094F92E4800682E49B0FBF1F085
:1049D0002D4908700846007800EB4001C1EBC0107B
:1049E0004FF6FF7101EAC0002849088010BD01465A
:1049F000254A12784A434FF0E0235A6100229A6117
:104A00001A46126942F001021A6100BF4FF0E0221B
:104A1000106900F001021AB100F48032002AF5D0CA
:104A20004FF0E022126922F001024FF0E0231A61F8
:104A300000229A6170470146144A12884A434FF097
:104A4000E0235A6100229A611A46126942F001027B
:104A50001A6100BF4FF0E022106900F001021AB1A4
:104A600000F48032002AF5D04FF0E022126922F0E3
:104A700001024FF0E0231A6100229A6170470000A2
:104A80000400002000127A00EC030020EE03002056
:104A9000014600BF704700BF584A128802F040022A
:104AA000002AF9D0C2B2554B1B1D1A80704710B5B1
:104AB00086B00446012144F2040000F053FC4FF498
:104AC0000070ADF8140003208DF8160018208DF842
:104AD000170005A94A4800F089F94FF48060ADF845
:104AE000140004208DF8170005A9454800F07EF950
:104AF00025208DF8000003208DF801008DF80200BC
:104B000001208DF80300684600F0A7F8019400200A
:104B1000ADF80800ADF80A00ADF80C00ADF81000D3
:104B20000C20ADF80E0001A9344800F0C2FC0122AF
:104B300040F22551314800F054FD01212F4800F08A
:104B400044FD06B010BD10B540F225512B4800F0D1
:104B50002DFE28B3294800F0A9FDC4B229480088D9
:104B600000F40040E0B92748008800F4804078B1A4
:104B70000A2C03D000202349088005E02148008842
:104B800040F400401F49088001201F4908701AE0C6
:104B90000D2C06D11B48008840F48040194908803C
:104BA00011E018480088C0F30D0018490C5415484E
:104BB0000088401C1349088008460088B0F5005F53
:104BC00001DB0020088010BD10B5044621460B48CB
:104BD00000F068FD00BF4021084800F0D1FD00282A
:104BE000F9D010BD10B5044603E02078FFF7ECFFC4
:104BF000641C20780028F8D110BD00000038014066
:104C000000080140F4030020F603002020260020C5
:104C10000948804709480047FEE7FEE7FEE7FEE750
:104C2000FEE7FEE7FEE7FEE7FEE7FEE7044805498C
:104C3000054A064B70470000930400083101000844
:104C400080460020804C00208048002080480020C2
:104C500031490143314A1160704770B5002100238A
:104C60000F22C47804B32D4C246804F4E064C4F526
:104C7000E064210AC1F10403CA40447804FA03F154
:104C80008478144021430901254C0678A155047805
:104C900004F01F050124AC4005786D11AD0005F14D
:104CA000E025C5F8004109E0047804F01F0501245F
:104CB000AC401C4D0678761145F8264070BD1A4A66
:104CC0000A400243154B1B1F1A60704739B1134A43
:104CD000121D12680243114B1B1D1A6006E00F4A99
:104CE000121D126882430D4B1B1D1A607047042869
:104CF00008D14FF0E021096941F004014FF0E022B2
:104D0000116107E04FF0E021096921F004014FF043
:104D1000E0221161704700000000FA050CED00E090
:104D200000E400E080E100E080FFFF1F10B50446D2
:104D3000CC48844208D10121042000F02DFB002141
:104D4000042000F029FB46E0C748844208D1012135
:104D5000082000F021FB0021082000F01DFB3AE0B4
:104D6000C248844208D10121102000F015FB002127
:104D7000102000F011FB2EE0BD48844208D1012133
:104D8000202000F009FB0021202000F005FB22E09C
:104D9000B848844208D10121402000F0FDFA0021EA
:104DA000402000F0F9FA16E0B348844208D101210E
:104DB000802000F0F1FA0021802000F0EDFA0AE0F6
:104DC000AE48844207D10121801500F0E5FA0021A8
:104DD000A01500F0E1FA10BD10B50121084600F061
:104DE000DBFA0021012000F0D7FA10BD2DE9F041D7
:104DF000024600250026002000230024002791F809
:104E000003C00CF00F0591F803C00CF0100CBCF1BE
:104E1000000F03D091F802C04CEA050591F800C0DC
:104E2000BCF1000F31D0146800202BE04FF0010CD2
:104E30000CFA00F3B1F800C00CEA03069E4220D140
:104E400083004FF00F0C0CFA03F7BC4305FA03FC88
:104E50004CEA040491F803C0BCF1280F06D14FF0CE
:104E6000010C0CFA00FCC2F814C00AE091F803C06F
:104E7000BCF1480F05D14FF0010C0CFA00FCC2F850
:104E800010C0401C0828D1D31460B1F800C0BCF198
:104E9000FF0F34DD546800202EE000F1080C4FF0C5
:104EA000010808FA0CF3B1F800C00CEA03069E42B0
:104EB00021D183004FF00F0C0CFA03F7BC4305FA25
:104EC00003FC4CEA040491F803C0BCF1280F05D19F
:104ED00000F1080C08FA0CF8C2F8148091F803C02D
:104EE000BCF1480F07D100F1080C4FF0010808FA97
:104EF0000CF8C2F81080401C0828CED35460BDE8DE
:104F0000F0814FF6FF710180022181700421C17090
:104F100070470246002093680B400BB1012000E06F
:104F2000002070470146886880B270470246002022
:104F3000D3680B400BB1012000E000207047014610
:104F4000C86880B2704701617047416170470AB11B
:104F5000016100E041617047C16070474FF48032E9
:104F60000A43826181618261826982697047024677
:104F70000020434B18684FF68073184040EA021037
:104F800008433F4B186070473E49C8617047F0B511
:104F90000A46002300240021002500F00046B6F157
:104FA000004F02D1364EF16901E0354E7168C0F311
:104FB000034583B200F44016B6F5401F08D121F036
:104FC00070612F4E766826F070662D4F7E6012E07D
:104FD00000F48016B6F5801F06D1032606FA05F404
:104FE000A14341F0706106E0460D360103FA06F672
:104FF000B14341F0706122B1460D360103FA06F665
:10500000314300F00046B6F1004F02D11C4EF16171
:1050100001E01B4E7160F0BD30B500228B071C0F04
:105020000F2303FA04F2164B08338C1053F8243084
:105030009343134C08348D1044F8253023468C10CC
:1050400053F824308C07240F00FA04F423430C4C4B
:1050500008348D1044F8253030BD0A49DC31086031
:105060007047000000080140000C014000100140A2
:105070000014014000180140001C014000200140C4
:105080000000014000002042DF48006840F00100BD
:10509000DD49086008464068DC490840DA49486054
:1050A00008460068DA490840D749086008460068A1
:1050B00020F4802008600846406820F4FE00486024
:1050C0004FF41F0088607047CF49096821F4803190
:1050D000CD4A11601146096821F480211160B0F5B4
:1050E000803F03D0B0F5802F0ED106E0C649096895
:1050F00041F48031C44A116007E0C349096841F4B2
:10510000A021C14A116000E000BF00BF704710B588
:1051100001460022002300204A11012A02D1BA4C84
:10512000236806E0022A02D1B74C236A01E0B64C9C
:10513000636A01F01F02012494401C400CB101205D
:1051400000E0002010BD38B50020009000240025AC
:1051500000BF3120FFF7DBFF05460098401C0090A0
:105160000098B0F5A06F01D0002DF2D03120FFF7EC
:10517000CEFF08B1012400E00024204638BD0146DE
:105180000020A14A106820F0F80040EAC100106039
:105190007047A04908607047024600209A4B586843
:1051A00020F47C1042EA01031843974B5860704783
:1051B00098490866704701460020934A506820F0DD
:1051C00003000843506070478F48406800F00C00AF
:1051D0007047014600208C4A506820F0F0000843D8
:1051E0005060704701460020874A506820F4E06014
:1051F00008435060704701460020834A506820F4FD
:10520000605040EAC1005060704729B17E4A527A2E
:1052100002437D4B5A7204E07B4A527A82437A4BB6
:105220005A7270477B49D8310860704701460020A8
:10523000754A506820F44040084350607047002190
:10524000714A20321170704A82F82010012802D071
:1052500004280AD104E001216B4A2032117005E0D4
:105260000521694A2032117000E000BF00BF70477D
:105270006949086070476449096A0143624A1162DA
:105280007047654944390860704730B500210022F5
:10529000002400235C4D6D6805F00C0121B1042948
:1052A00005D0082923D105E05C4D056022E05B4D67
:1052B00005601FE0544D6D6805F47012524D6D6825
:1052C00005F48034022505EB92421CB9544D554338
:1052D00005600BE04C4D6D6805F400351DB1504D77
:1052E0005543056002E04D4D5543056002E04B4DCE
:1052F000056000BF00BF444D6D6805F0F00109096D
:10530000484D6B5C0568DD4045603F4D6D6805F4B8
:10531000E061090A434D6B5C4568DD4085603A4DAC
:105320006D6805F46051C90A3E4D6B5C4568DD400F
:10533000C560354D6D6805F44041890B3A4D6B5C95
:10534000C568B5FBF3F5056130BD29B12E4A526938
:1053500002432D4B5A6104E02B4A526982432A4B87
:105360005A61704729B1284A92690243264B9A61D3
:1053700004E0254A92698243234B9A61704729B120
:10538000214AD2690243204BDA6104E01E4AD26905
:1053900082431D4BDA61704729B11B4AD268024330
:1053A000194BDA6004E0184AD2688243164BDA607F
:1053B000704729B1144A12690243134B1A6104E081
:1053C000114A12698243104B1A61704712494039E1
:1053D000086070470F49C86470470B49C87170472F
:1053E0000948406A40F080700749486270470146AA
:1053F0000020054A92680A400AB1012000E000201E
:105400007047014988727047001002400000FFF8A1
:10541000FFFFF6FE000042428004424200127A0082
:1054200000093D00F70300200704002010B50446E2
:10543000FB48844209D101218803FFF7ADFF002119
:105440004FF48040FFF7A8FF32E0F648844209D1CC
:1054500001214804FFF7ADFF00214FF40030FFF7B2
:10546000A8FF25E0F048844209D101218804FFF714
:10547000A0FF00214FF48020FFF79BFF18E0EB48CE
:10548000844209D10121C804FFF793FF00214FF4A2
:105490000020FFF78EFF0BE0E548844208D1012190
:1054A0000805FFF786FF00214FF48010FFF781FF0A
:1054B00010BD2DE9F04786B005460E460024A246F1
:1054C00000BFA1460027B08900B100BF2F462C8A3B
:1054D0004CF6FF700440F08804432C82AC894EF6F1
:1054E000F3100440B08831890843718908430443AC
:1054F000AC81AC8A4FF6FF400440B0890443AC82D3
:1055000001A8FFF7C2FEC648874202D1DDF810A00D
:1055100001E0DDF80CA0A88900F4004040B10AEBDE
:10552000CA0000EB0A1031684900B0FBF1F807E04F
:105530000AEBCA0000EB0A1031688900B0FBF1F8F1
:105540006420B8FBF0F004012009642101FB1089FC
:10555000A88900F4004040B1322000EBC900B0FB44
:10556000F1F000F00700044308E0322000EB0910DE
:105570006421B0FBF1F000F00F0004432C8106B071
:10558000BDE8F0874FF41651016000218180C18091
:1055900001810C21418100218181704710B50246B3
:1055A0000020108A4FF2FF0318400B884C882343D9
:1055B0008C882343CC8823431843108210BD0021DC
:1055C000018041808180C180704721B1828942F48D
:1055D0000052828104E082894DF6FF731A40828175
:1055E0007047F0B50346002400260025002040F651
:1055F0006A17B94200D100BF1846C1F3421401F046
:105600001F06012707FA06F5012C01D10C3004E032
:10561000022C01D1103000E014301AB107682F437A
:10562000076002E00768AF430760F0BD1AB1838AE4
:105630000B43838202E0838A8B4383827047028A12
:105640004FF6F0731A400282028A0A4302827047C0
:1056500082894FF2FF731A40828182890A438281D4
:10566000704721B1828942F00202828104E082897E
:105670004FF6FD731A4082817047028A4FF6DF733E
:105680001A400282028A0A430282704721B1028ACA
:1056900042F48042028204E0028A4BF6FF731A4011
:1056A00002827047C1F308028280704701468888F1
:1056B000C0F308007047818941F001018181704782
:1056C000028BD2B20283028B42EA0122028370472C
:1056D000028B02F47F420283028B0A4302837047EB
:1056E00021B1828A42F02002828204E0828A4FF64F
:1056F000DF731A408282704721B1828A42F0100221
:10570000828204E0828A4FF6EF731A4082827047E9
:1057100021B1828A42F00802828204E0828A4FF636
:10572000F7731A408282704721B1828942F40042A5
:10573000828103E08289C2F30E028281704721B127
:10574000828A42F40062828204E0828A4FF2FF730E
:105750001A4082827047828A4FF6FB731A40828217
:10576000828A0A438282704721B1828A42F0020211
:10577000828204E0828A4FF6FD731A40828270476B
:1057800002460020B1F5007F00D100BF13880B4016
:105790000BB1012000E00020704701F40072B2F567
:1057A000007F00D100BFCA430280704770B5024637
:1057B000002400230025002040F66A16B14200D1E3
:1057C00000BFC1F3421501F01F03012606FA03F3DF
:1057D000012D02D19689334006E0022D02D1168AAE
:1057E000334001E0968A33400C12012606FA04F495
:1057F0001688344013B10CB1012000E0002070BDC8
:1058000010B50022002340F66A14A14200D100BF67
:105810000A1201249440A3B2DC43048010BD0000AE
:10582000003801400044004000480040004C004067
:1058300000500040704710B54C1084EA530404D562
:105840004042C1F1000138BF491E1B4204D55242FB
:10585000C3F1000338BF5B1E00F082F914F0804FE3
:1058600004D04042C1F1000138BF491E14F0004F7E
:1058700004D05242C3F1000338BF5B1E10BD0000CC
:105880000FB4044910B503AA029800F045FA10BC01
:105890005DF814FBF003002070B5044685690068CC
:1058A000C10601D5302600E02026C00707D070BD14
:1058B000D4E9012130469047206A401C20626D1EC9
:1058C000F6D570BD70B5044685690078C00707D16C
:1058D00070BDD4E9012120209047206A401C20623D
:1058E0006D1EF6D570BD00002DE9F041064600247E
:1058F00010687529314616A510D0AFF30080002836
:1059000002DA404213A507E031688A0701D512A5E3
:1059100002E0490704D511A5012401E0AFF300809E
:1059200000210A2206F1240709E0B0FBF2FCB0FBDB
:10593000F2F302FB1C00303078541846491C002852
:10594000F3D123462A463046BDE8F04100F08AB93B
:10595000000000002D0000002B00000020000000CF
:1059600070B504460D4621461068AFF300802188CB
:10597000090502D50F4A7A4402E00E4A7A440E32F3
:10598000002104F1240305E000F00F060009965DF4
:105990005E54491C0028F7D120780023000704D565
:1059A000702D02D009B1022311322046BDE87040AB
:1059B00000F058B92C3400002DE9F05F8946044608
:1059C0004FF0000ADFF824B1FB44C0F820A02046C5
:1059D000E168884700287DD0252806D0D4E9012138
:1059E0009047206A401C2062F1E700255F46204670
:1059F000E16888472028064607DB312E05D2B81912
:105A000010F8200C08B10543F1E7A80701D525F0EF
:105A10000405C4F81CA00027C4F818A02A2E09D039
:105A2000304600F0A1FA38B304EB8708303EC8F8DE
:105A3000186019E059F8041B204604EB87029161B5
:105A4000E1688847012F064618D1E069002820DA6E
:105A500025F020051DE0D8F8180000EB800006EBCB
:105A600040003038C8F818002046E16888470646EC
:105A700000F07AFA0028EED1012F0AD02E2E08D19C
:105A80002046E16888477F1C0646022F45F0200526
:105A9000C4DBA069002803DA404245F00105A0619B
:105AA000E80701D025F01005A6B1A6F1410019289C
:105AB00002D8203645F400654A4631462046256026
:105AC0004D46FAF78FFB60B1012807D0ED1D25F098
:105AD000070000E007E000F1080978E705F1040994
